{
  "contractName": "ParcelContract",
  "abi": [
    {
      "constant": true,
      "inputs": [],
      "name": "senderSigned",
      "outputs": [
        {
          "name": "",
          "type": "bool"
        }
      ],
      "payable": false,
      "stateMutability": "view",
      "type": "function"
    },
    {
      "constant": true,
      "inputs": [],
      "name": "readyForDeliveryLongitudeReceiver",
      "outputs": [
        {
          "name": "",
          "type": "int256"
        }
      ],
      "payable": false,
      "stateMutability": "view",
      "type": "function"
    },
    {
      "constant": true,
      "inputs": [],
      "name": "senderSignedTimeStamp",
      "outputs": [
        {
          "name": "",
          "type": "uint256"
        }
      ],
      "payable": false,
      "stateMutability": "view",
      "type": "function"
    },
    {
      "constant": true,
      "inputs": [],
      "name": "deliveryLatitude",
      "outputs": [
        {
          "name": "",
          "type": "int256"
        }
      ],
      "payable": false,
      "stateMutability": "view",
      "type": "function"
    },
    {
      "constant": true,
      "inputs": [],
      "name": "readyForDeliveryLatitudeCourier",
      "outputs": [
        {
          "name": "",
          "type": "int256"
        }
      ],
      "payable": false,
      "stateMutability": "view",
      "type": "function"
    },
    {
      "constant": true,
      "inputs": [],
      "name": "deliveredTimeStamp",
      "outputs": [
        {
          "name": "",
          "type": "uint256"
        }
      ],
      "payable": false,
      "stateMutability": "view",
      "type": "function"
    },
    {
      "constant": true,
      "inputs": [],
      "name": "readyForPickupTimeStampSender",
      "outputs": [
        {
          "name": "",
          "type": "uint256"
        }
      ],
      "payable": false,
      "stateMutability": "view",
      "type": "function"
    },
    {
      "constant": true,
      "inputs": [],
      "name": "readyForPickupLongitudeSender",
      "outputs": [
        {
          "name": "",
          "type": "int256"
        }
      ],
      "payable": false,
      "stateMutability": "view",
      "type": "function"
    },
    {
      "constant": true,
      "inputs": [],
      "name": "receiverSigned",
      "outputs": [
        {
          "name": "",
          "type": "bool"
        }
      ],
      "payable": false,
      "stateMutability": "view",
      "type": "function"
    },
    {
      "constant": true,
      "inputs": [],
      "name": "courier",
      "outputs": [
        {
          "name": "",
          "type": "address"
        }
      ],
      "payable": false,
      "stateMutability": "view",
      "type": "function"
    },
    {
      "constant": true,
      "inputs": [],
      "name": "version",
      "outputs": [
        {
          "name": "",
          "type": "bytes32"
        }
      ],
      "payable": false,
      "stateMutability": "view",
      "type": "function"
    },
    {
      "constant": true,
      "inputs": [],
      "name": "deliveredToSenderTimeStamp",
      "outputs": [
        {
          "name": "",
          "type": "uint256"
        }
      ],
      "payable": false,
      "stateMutability": "view",
      "type": "function"
    },
    {
      "constant": true,
      "inputs": [],
      "name": "pickupTimeStamp",
      "outputs": [
        {
          "name": "",
          "type": "uint256"
        }
      ],
      "payable": false,
      "stateMutability": "view",
      "type": "function"
    },
    {
      "constant": true,
      "inputs": [],
      "name": "readyForDeliveryLongitudeCourier",
      "outputs": [
        {
          "name": "",
          "type": "int256"
        }
      ],
      "payable": false,
      "stateMutability": "view",
      "type": "function"
    },
    {
      "constant": true,
      "inputs": [],
      "name": "sender",
      "outputs": [
        {
          "name": "",
          "type": "address"
        }
      ],
      "payable": false,
      "stateMutability": "view",
      "type": "function"
    },
    {
      "constant": true,
      "inputs": [],
      "name": "transportCost",
      "outputs": [
        {
          "name": "",
          "type": "uint256"
        }
      ],
      "payable": false,
      "stateMutability": "view",
      "type": "function"
    },
    {
      "constant": true,
      "inputs": [],
      "name": "accuracyDeliveryAndPickup",
      "outputs": [
        {
          "name": "",
          "type": "int256"
        }
      ],
      "payable": false,
      "stateMutability": "view",
      "type": "function"
    },
    {
      "constant": true,
      "inputs": [],
      "name": "receiverSignedTimeStamp",
      "outputs": [
        {
          "name": "",
          "type": "uint256"
        }
      ],
      "payable": false,
      "stateMutability": "view",
      "type": "function"
    },
    {
      "constant": true,
      "inputs": [],
      "name": "readyForDeliveryTimeStampReceiver",
      "outputs": [
        {
          "name": "",
          "type": "uint256"
        }
      ],
      "payable": false,
      "stateMutability": "view",
      "type": "function"
    },
    {
      "constant": true,
      "inputs": [],
      "name": "readyForDeliveryLatitudeReceiver",
      "outputs": [
        {
          "name": "",
          "type": "int256"
        }
      ],
      "payable": false,
      "stateMutability": "view",
      "type": "function"
    },
    {
      "constant": true,
      "inputs": [],
      "name": "courierSignedTimeStamp",
      "outputs": [
        {
          "name": "",
          "type": "uint256"
        }
      ],
      "payable": false,
      "stateMutability": "view",
      "type": "function"
    },
    {
      "constant": true,
      "inputs": [],
      "name": "owner",
      "outputs": [
        {
          "name": "",
          "type": "address"
        }
      ],
      "payable": false,
      "stateMutability": "view",
      "type": "function"
    },
    {
      "constant": true,
      "inputs": [],
      "name": "deliveryStart",
      "outputs": [
        {
          "name": "",
          "type": "uint256"
        }
      ],
      "payable": false,
      "stateMutability": "view",
      "type": "function"
    },
    {
      "constant": true,
      "inputs": [],
      "name": "pickupLongitude",
      "outputs": [
        {
          "name": "",
          "type": "int256"
        }
      ],
      "payable": false,
      "stateMutability": "view",
      "type": "function"
    },
    {
      "constant": true,
      "inputs": [],
      "name": "deliveryLongitude",
      "outputs": [
        {
          "name": "",
          "type": "int256"
        }
      ],
      "payable": false,
      "stateMutability": "view",
      "type": "function"
    },
    {
      "constant": true,
      "inputs": [],
      "name": "courierSigned",
      "outputs": [
        {
          "name": "",
          "type": "bool"
        }
      ],
      "payable": false,
      "stateMutability": "view",
      "type": "function"
    },
    {
      "constant": true,
      "inputs": [],
      "name": "readyForDeliveryTimeStampCourier",
      "outputs": [
        {
          "name": "",
          "type": "uint256"
        }
      ],
      "payable": false,
      "stateMutability": "view",
      "type": "function"
    },
    {
      "constant": true,
      "inputs": [],
      "name": "readyForPickupLatitudeSender",
      "outputs": [
        {
          "name": "",
          "type": "int256"
        }
      ],
      "payable": false,
      "stateMutability": "view",
      "type": "function"
    },
    {
      "constant": true,
      "inputs": [],
      "name": "platformCost",
      "outputs": [
        {
          "name": "",
          "type": "uint256"
        }
      ],
      "payable": false,
      "stateMutability": "view",
      "type": "function"
    },
    {
      "constant": true,
      "inputs": [],
      "name": "readyForPickupLongitudeCourier",
      "outputs": [
        {
          "name": "",
          "type": "int256"
        }
      ],
      "payable": false,
      "stateMutability": "view",
      "type": "function"
    },
    {
      "constant": true,
      "inputs": [],
      "name": "deliveryEnd",
      "outputs": [
        {
          "name": "",
          "type": "uint256"
        }
      ],
      "payable": false,
      "stateMutability": "view",
      "type": "function"
    },
    {
      "constant": true,
      "inputs": [],
      "name": "pickupLatitude",
      "outputs": [
        {
          "name": "",
          "type": "int256"
        }
      ],
      "payable": false,
      "stateMutability": "view",
      "type": "function"
    },
    {
      "constant": true,
      "inputs": [],
      "name": "readyForPickupTimeStampCourier",
      "outputs": [
        {
          "name": "",
          "type": "uint256"
        }
      ],
      "payable": false,
      "stateMutability": "view",
      "type": "function"
    },
    {
      "constant": true,
      "inputs": [],
      "name": "readyForPickupLatitudeCourier",
      "outputs": [
        {
          "name": "",
          "type": "int256"
        }
      ],
      "payable": false,
      "stateMutability": "view",
      "type": "function"
    },
    {
      "constant": false,
      "inputs": [
        {
          "name": "newOwner",
          "type": "address"
        }
      ],
      "name": "transferOwnership",
      "outputs": [],
      "payable": false,
      "stateMutability": "nonpayable",
      "type": "function"
    },
    {
      "constant": true,
      "inputs": [],
      "name": "pickupEnd",
      "outputs": [
        {
          "name": "",
          "type": "uint256"
        }
      ],
      "payable": false,
      "stateMutability": "view",
      "type": "function"
    },
    {
      "constant": true,
      "inputs": [],
      "name": "parcelHash",
      "outputs": [
        {
          "name": "",
          "type": "bytes32"
        }
      ],
      "payable": false,
      "stateMutability": "view",
      "type": "function"
    },
    {
      "constant": true,
      "inputs": [],
      "name": "receiver",
      "outputs": [
        {
          "name": "",
          "type": "address"
        }
      ],
      "payable": false,
      "stateMutability": "view",
      "type": "function"
    },
    {
      "constant": true,
      "inputs": [],
      "name": "pickupStart",
      "outputs": [
        {
          "name": "",
          "type": "uint256"
        }
      ],
      "payable": false,
      "stateMutability": "view",
      "type": "function"
    },
    {
      "constant": true,
      "inputs": [],
      "name": "platformWallet",
      "outputs": [
        {
          "name": "",
          "type": "address"
        }
      ],
      "payable": false,
      "stateMutability": "view",
      "type": "function"
    },
    {
      "constant": true,
      "inputs": [],
      "name": "weiLockedBySender",
      "outputs": [
        {
          "name": "",
          "type": "uint256"
        }
      ],
      "payable": false,
      "stateMutability": "view",
      "type": "function"
    },
    {
      "inputs": [
        {
          "name": "_owner",
          "type": "address"
        },
        {
          "name": "_sender",
          "type": "address"
        },
        {
          "name": "_courier",
          "type": "address"
        },
        {
          "name": "_receiver",
          "type": "address"
        },
        {
          "name": "_parcelHash",
          "type": "bytes32"
        },
        {
          "name": "_transportCost",
          "type": "uint256"
        },
        {
          "name": "_platformCost",
          "type": "uint256"
        },
        {
          "name": "_deliveryLongitude",
          "type": "int256"
        },
        {
          "name": "_deliveryLatitude",
          "type": "int256"
        },
        {
          "name": "_pickupLongitude",
          "type": "int256"
        },
        {
          "name": "_pickupLatitude",
          "type": "int256"
        },
        {
          "name": "_accuracyDeliveryAndPickup",
          "type": "int256"
        },
        {
          "name": "_deliveryStart",
          "type": "uint256"
        },
        {
          "name": "_deliveryEnd",
          "type": "uint256"
        },
        {
          "name": "_pickupStart",
          "type": "uint256"
        },
        {
          "name": "_pickupEnd",
          "type": "uint256"
        }
      ],
      "payable": false,
      "stateMutability": "nonpayable",
      "type": "constructor"
    },
    {
      "payable": true,
      "stateMutability": "payable",
      "type": "fallback"
    },
    {
      "anonymous": false,
      "inputs": [
        {
          "indexed": true,
          "name": "previousOwner",
          "type": "address"
        },
        {
          "indexed": true,
          "name": "newOwner",
          "type": "address"
        }
      ],
      "name": "OwnershipTransferred",
      "type": "event"
    },
    {
      "constant": false,
      "inputs": [],
      "name": "sign",
      "outputs": [],
      "payable": true,
      "stateMutability": "payable",
      "type": "function"
    },
    {
      "constant": false,
      "inputs": [],
      "name": "unsign",
      "outputs": [],
      "payable": false,
      "stateMutability": "nonpayable",
      "type": "function"
    },
    {
      "constant": false,
      "inputs": [],
      "name": "pickup",
      "outputs": [],
      "payable": false,
      "stateMutability": "nonpayable",
      "type": "function"
    },
    {
      "constant": false,
      "inputs": [],
      "name": "delivered",
      "outputs": [],
      "payable": false,
      "stateMutability": "nonpayable",
      "type": "function"
    },
    {
      "constant": false,
      "inputs": [],
      "name": "deliveredToSender",
      "outputs": [],
      "payable": false,
      "stateMutability": "nonpayable",
      "type": "function"
    },
    {
      "constant": false,
      "inputs": [
        {
          "name": "longitude",
          "type": "int256"
        },
        {
          "name": "latitude",
          "type": "int256"
        }
      ],
      "name": "readyForPickup",
      "outputs": [],
      "payable": false,
      "stateMutability": "nonpayable",
      "type": "function"
    },
    {
      "constant": false,
      "inputs": [
        {
          "name": "longitude",
          "type": "int256"
        },
        {
          "name": "latitude",
          "type": "int256"
        }
      ],
      "name": "readyForDelivery",
      "outputs": [],
      "payable": false,
      "stateMutability": "nonpayable",
      "type": "function"
    },
    {
      "constant": true,
      "inputs": [],
      "name": "readReadyEvents",
      "outputs": [
        {
          "name": "_readyForPickupTimeStampSender",
          "type": "uint256"
        },
        {
          "name": "_readyForPickupLongitudeSender",
          "type": "int256"
        },
        {
          "name": "_readyForPickupLatitudeSender",
          "type": "int256"
        },
        {
          "name": "_readyForPickupTimeStampCourier",
          "type": "uint256"
        },
        {
          "name": "_readyForPickupLongitudeCourier",
          "type": "int256"
        },
        {
          "name": "_readyForPickupLatitudeCourier",
          "type": "int256"
        },
        {
          "name": "_readyForDeliveryTimeStampReceiver",
          "type": "uint256"
        },
        {
          "name": "_readyForDeliveryLongitudeReceiver",
          "type": "int256"
        },
        {
          "name": "_readyForDeliveryLatitudeReceiver",
          "type": "int256"
        },
        {
          "name": "_readyForDeliveryTimeStampCourier",
          "type": "uint256"
        },
        {
          "name": "_readyForDeliveryLongitudeCourier",
          "type": "int256"
        },
        {
          "name": "_readyForDeliveryLatitudeCourier",
          "type": "int256"
        }
      ],
      "payable": false,
      "stateMutability": "view",
      "type": "function"
    },
    {
      "constant": true,
      "inputs": [],
      "name": "readMainEvents",
      "outputs": [
        {
          "name": "_senderSigned",
          "type": "bool"
        },
        {
          "name": "_senderSignedTimeStamp",
          "type": "uint256"
        },
        {
          "name": "_courierSigned",
          "type": "bool"
        },
        {
          "name": "_courierSignedTimeStamp",
          "type": "uint256"
        },
        {
          "name": "_receiverSigned",
          "type": "bool"
        },
        {
          "name": "_receiverSignedTimeStamp",
          "type": "uint256"
        },
        {
          "name": "_pickupTimeStamp",
          "type": "uint256"
        },
        {
          "name": "_deliveredTimeStamp",
          "type": "uint256"
        },
        {
          "name": "_deliveredToSenderTimeStamp",
          "type": "uint256"
        }
      ],
      "payable": false,
      "stateMutability": "view",
      "type": "function"
    },
    {
      "constant": true,
      "inputs": [],
      "name": "readDetails",
      "outputs": [
        {
          "name": "_version",
          "type": "bytes32"
        },
        {
          "name": "_accuracyDeliveryAndPickup",
          "type": "int256"
        },
        {
          "name": "_platformCost",
          "type": "uint256"
        },
        {
          "name": "_sender",
          "type": "address"
        },
        {
          "name": "_courier",
          "type": "address"
        },
        {
          "name": "_receiver",
          "type": "address"
        },
        {
          "name": "_transportCost",
          "type": "uint256"
        },
        {
          "name": "_weiLockedBySender",
          "type": "uint256"
        },
        {
          "name": "_parcelHash",
          "type": "bytes32"
        }
      ],
      "payable": false,
      "stateMutability": "view",
      "type": "function"
    },
    {
      "constant": true,
      "inputs": [],
      "name": "readPickupAndDeliveryDetails",
      "outputs": [
        {
          "name": "_deliveryStart",
          "type": "uint256"
        },
        {
          "name": "_deliveryEnd",
          "type": "uint256"
        },
        {
          "name": "_pickupStart",
          "type": "uint256"
        },
        {
          "name": "_pickupEnd",
          "type": "uint256"
        },
        {
          "name": "_deliveryLatitude",
          "type": "int256"
        },
        {
          "name": "_deliveryLongitude",
          "type": "int256"
        },
        {
          "name": "_pickupLatitude",
          "type": "int256"
        },
        {
          "name": "_pickupLongitude",
          "type": "int256"
        }
      ],
      "payable": false,
      "stateMutability": "view",
      "type": "function"
    }
  ],
  "bytecode": "0x60806040527f312e300000000000000000000000000000000000000000000000000000000000600190600019169055732f19621dca80d7ccb5fc9eef427ea2de92596ca8600560006101000a81548173ffffffffffffffffffffffffffffffffffffffff021916908373ffffffffffffffffffffffffffffffffffffffff1602179055506000600655600060075560006008556000600a556000600b556000600c556000600d556000600e556000600f556000601055600060115560006012556000601360006101000a81548160ff02191690831515021790555060006014556000601560006101000a81548160ff02191690831515021790555060006016556000601760006101000a81548160ff021916908315150217905550600060185560006019556000601a556000601b556000601c556000601d556000601e556000601f55600060205560006021556000602255600060235560006024556000602555600060265560006027553480156200017757600080fd5b5060405161020080620040e083398101806040528101908080519060200190929190805190602001909291908051906020019092919080519060200190929190805190602001909291908051906020019092919080519060200190929190805190602001909291908051906020019092919080519060200190929190805190602001909291908051906020019092919080519060200190929190805190602001909291908051906020019092919080519060200190929190505050336000806101000a81548173ffffffffffffffffffffffffffffffffffffffff021916908373ffffffffffffffffffffffffffffffffffffffff1602179055506200028d8989620005fd640100000000026401000000009004565b151562000328576040517f08c379a00000000000000000000000000000000000000000000000000000000081526004018080602001828103825260268152602001807f496e76616c69642064656c6976657279206c6f6e676974756465206f72206c6181526020017f746974756465000000000000000000000000000000000000000000000000000081525060400191505060405180910390fd5b620003438787620005fd640100000000026401000000009004565b1515620003de576040517f08c379a00000000000000000000000000000000000000000000000000000000081526004018080602001828103825260248152602001807f496e76616c6964207069636b7570206c6f6e676974756465206f72206c61746981526020017f747564650000000000000000000000000000000000000000000000000000000081525060400191505060405180910390fd5b60328512158015620003f1575060968513155b15156200048c576040517f08c379a00000000000000000000000000000000000000000000000000000000081526004018080602001828103825260398152602001807f6163637572616379206f662064656c697665727920616e64207069636b75702081526020017f6973206e6f74206265747765656e20353020616e64203135300000000000000081525060400191505060405180910390fd5b8f6000806101000a81548173ffffffffffffffffffffffffffffffffffffffff021916908373ffffffffffffffffffffffffffffffffffffffff1602179055508e600260006101000a81548173ffffffffffffffffffffffffffffffffffffffff021916908373ffffffffffffffffffffffffffffffffffffffff1602179055508d600360006101000a81548173ffffffffffffffffffffffffffffffffffffffff021916908373ffffffffffffffffffffffffffffffffffffffff1602179055508c600460006101000a81548173ffffffffffffffffffffffffffffffffffffffff021916908373ffffffffffffffffffffffffffffffffffffffff1602179055508b600981600019169055508a600681905550896007819055508460128190555087600c8190555088600d81905550856010819055508660118190555081600e8190555080600f8190555083600a8190555082600b819055505050505050505050505050505050505062000678565b60007ffffffffffffffffffffffffffffffffffffffffffffffffffffffffbcf1dcc0083138015620006335750640430e2340083125b80156200067057507ffffffffffffffffffffffffffffffffffffffffffffffffffffffffe050e46d2821380156200066f57506401faf1b92e82125b5b905092915050565b613a5880620006886000396000f300608060405260043610610272576000357c0100000000000000000000000000000000000000000000000000000000900463ffffffff1680630323d093146103065780630c6086cd146103755780630c665c67146103ed5780630f9666f81461041c57806319e42dab1461044757806324500bf7146104725780632ca151221461049d5780632de849cc146104a75780632f67fd98146104d257806330b9ca35146104e957806337a3ee071461051457806339f4493e1461053f5780633c8d6f961461056a57806341e60c86146105c6578063463384bb146105dd5780634d6dd0fe1461061457806350a7f7d31461064357806354fd4d501461069a57806355dee5ff146106cd57806356f2876f146106f85780635f5b5d6514610723578063606eea9f1461075a57806367e404ce146107855780636c1dc822146107dc5780637361c0be1461080757806376c2224a14610832578063774c0b0e1461085d57806385797c7c14610888578063880778b9146108b35780638da5cb5b146108de5780638e994775146109355780639455edd814610960578063957e09bd1461098b578063b8c92722146109b6578063bbdfbfba146109e5578063bda8da6e146109fc578063c85146bc14610a27578063cbec74ca14610a52578063d5cabfa714610a7d578063de64cbac14610aa8578063e130200014610ad3578063e1e5b1ee14610afe578063e2c1772d14610b15578063f257a93314610b40578063f2fde38b14610b6b578063f55f5e6914610bae578063f5b6594514610bd9578063f7260d3e14610c0c578063f7736c2214610c63578063fa2af9da14610c8e578063fb4ebf3614610ce5578063fd9b43bc14610ddc575b6040517f08c379a00000000000000000000000000000000000000000000000000000000081526004018080602001828103825260218152602001807f52656a6563746564206279207468652072656a6563746f7220636f6e7472616381526020017f740000000000000000000000000000000000000000000000000000000000000081525060400191505060405180910390fd5b34801561031257600080fd5b5061031b610e07565b604051808a1515151581526020018981526020018815151515815260200187815260200186151515158152602001858152602001848152602001838152602001828152602001995050505050505050505060405180910390f35b34801561038157600080fd5b5061038a611066565b604051808d81526020018c81526020018b81526020018a81526020018981526020018881526020018781526020018681526020018581526020018481526020018381526020018281526020019c5050505050505050505050505060405180910390f35b3480156103f957600080fd5b506104026112b4565b604051808215151515815260200191505060405180910390f35b34801561042857600080fd5b506104316112c7565b6040518082815260200191505060405180910390f35b34801561045357600080fd5b5061045c6112cd565b6040518082815260200191505060405180910390f35b34801561047e57600080fd5b506104876112d3565b6040518082815260200191505060405180910390f35b6104a56112d9565b005b3480156104b357600080fd5b506104bc6116d6565b6040518082815260200191505060405180910390f35b3480156104de57600080fd5b506104e76116dc565b005b3480156104f557600080fd5b506104fe611b00565b6040518082815260200191505060405180910390f35b34801561052057600080fd5b50610529611b06565b6040518082815260200191505060405180910390f35b34801561054b57600080fd5b50610554611b0c565b6040518082815260200191505060405180910390f35b34801561057657600080fd5b5061057f611b12565b604051808981526020018881526020018781526020018681526020018581526020018481526020018381526020018281526020019850505050505050505060405180910390f35b3480156105d257600080fd5b506105db611d42565b005b3480156105e957600080fd5b5061061260048036038101908080359060200190929190803590602001909291905050506121e5565b005b34801561062057600080fd5b5061062961275f565b604051808215151515815260200191505060405180910390f35b34801561064f57600080fd5b50610658612772565b604051808273ffffffffffffffffffffffffffffffffffffffff1673ffffffffffffffffffffffffffffffffffffffff16815260200191505060405180910390f35b3480156106a657600080fd5b506106af612798565b60405180826000191660001916815260200191505060405180910390f35b3480156106d957600080fd5b506106e261279e565b6040518082815260200191505060405180910390f35b34801561070457600080fd5b5061070d6127a4565b6040518082815260200191505060405180910390f35b34801561072f57600080fd5b5061075860048036038101908080359060200190929190803590602001909291905050506127aa565b005b34801561076657600080fd5b5061076f612d4a565b6040518082815260200191505060405180910390f35b34801561079157600080fd5b5061079a612d50565b604051808273ffffffffffffffffffffffffffffffffffffffff1673ffffffffffffffffffffffffffffffffffffffff16815260200191505060405180910390f35b3480156107e857600080fd5b506107f1612d76565b6040518082815260200191505060405180910390f35b34801561081357600080fd5b5061081c612d7c565b6040518082815260200191505060405180910390f35b34801561083e57600080fd5b50610847612d82565b6040518082815260200191505060405180910390f35b34801561086957600080fd5b50610872612d88565b6040518082815260200191505060405180910390f35b34801561089457600080fd5b5061089d612d8e565b6040518082815260200191505060405180910390f35b3480156108bf57600080fd5b506108c8612d94565b6040518082815260200191505060405180910390f35b3480156108ea57600080fd5b506108f3612d9a565b604051808273ffffffffffffffffffffffffffffffffffffffff1673ffffffffffffffffffffffffffffffffffffffff16815260200191505060405180910390f35b34801561094157600080fd5b5061094a612dbf565b6040518082815260200191505060405180910390f35b34801561096c57600080fd5b50610975612dc5565b6040518082815260200191505060405180910390f35b34801561099757600080fd5b506109a0612dcb565b6040518082815260200191505060405180910390f35b3480156109c257600080fd5b506109cb612dd1565b604051808215151515815260200191505060405180910390f35b3480156109f157600080fd5b506109fa612de4565b005b348015610a0857600080fd5b50610a11613219565b6040518082815260200191505060405180910390f35b348015610a3357600080fd5b50610a3c61321f565b6040518082815260200191505060405180910390f35b348015610a5e57600080fd5b50610a67613225565b6040518082815260200191505060405180910390f35b348015610a8957600080fd5b50610a9261322b565b6040518082815260200191505060405180910390f35b348015610ab457600080fd5b50610abd613231565b6040518082815260200191505060405180910390f35b348015610adf57600080fd5b50610ae8613237565b6040518082815260200191505060405180910390f35b348015610b0a57600080fd5b50610b1361323d565b005b348015610b2157600080fd5b50610b2a613511565b6040518082815260200191505060405180910390f35b348015610b4c57600080fd5b50610b55613517565b6040518082815260200191505060405180910390f35b348015610b7757600080fd5b50610bac600480360381019080803573ffffffffffffffffffffffffffffffffffffffff16906020019092919050505061351d565b005b348015610bba57600080fd5b50610bc3613672565b6040518082815260200191505060405180910390f35b348015610be557600080fd5b50610bee613678565b60405180826000191660001916815260200191505060405180910390f35b348015610c1857600080fd5b50610c2161367e565b604051808273ffffffffffffffffffffffffffffffffffffffff1673ffffffffffffffffffffffffffffffffffffffff16815260200191505060405180910390f35b348015610c6f57600080fd5b50610c786136a4565b6040518082815260200191505060405180910390f35b348015610c9a57600080fd5b50610ca36136aa565b604051808273ffffffffffffffffffffffffffffffffffffffff1673ffffffffffffffffffffffffffffffffffffffff16815260200191505060405180910390f35b348015610cf157600080fd5b50610cfa6136d0565b604051808a600019166000191681526020018981526020018881526020018773ffffffffffffffffffffffffffffffffffffffff1673ffffffffffffffffffffffffffffffffffffffff1681526020018673ffffffffffffffffffffffffffffffffffffffff1673ffffffffffffffffffffffffffffffffffffffff1681526020018573ffffffffffffffffffffffffffffffffffffffff1673ffffffffffffffffffffffffffffffffffffffff1681526020018481526020018381526020018260001916600019168152602001995050505050505050505060405180910390f35b348015610de857600080fd5b50610df1613968565b6040518082815260200191505060405180910390f35b6000806000806000806000806000600360009054906101000a900473ffffffffffffffffffffffffffffffffffffffff1673ffffffffffffffffffffffffffffffffffffffff163373ffffffffffffffffffffffffffffffffffffffff161480610ebe5750600460009054906101000a900473ffffffffffffffffffffffffffffffffffffffff1673ffffffffffffffffffffffffffffffffffffffff163373ffffffffffffffffffffffffffffffffffffffff16145b80610f165750600260009054906101000a900473ffffffffffffffffffffffffffffffffffffffff1673ffffffffffffffffffffffffffffffffffffffff163373ffffffffffffffffffffffffffffffffffffffff16145b80610f6d57506000809054906101000a900473ffffffffffffffffffffffffffffffffffffffff1673ffffffffffffffffffffffffffffffffffffffff163373ffffffffffffffffffffffffffffffffffffffff16145b1515611007576040517f08c379a00000000000000000000000000000000000000000000000000000000081526004018080602001828103825260218152602001807f4f6e6c79207061727469636970616e74206f72206f776e657220616c6c6f776581526020017f640000000000000000000000000000000000000000000000000000000000000081525060400191505060405180910390fd5b601360009054906101000a900460ff1698506014549750601560009054906101000a900460ff1696506016549550601760009054906101000a900460ff16945060185493506019549250601a549150601b549050909192939495969798565b600080600080600080600080600080600080600360009054906101000a900473ffffffffffffffffffffffffffffffffffffffff1673ffffffffffffffffffffffffffffffffffffffff163373ffffffffffffffffffffffffffffffffffffffff1614806111215750600460009054906101000a900473ffffffffffffffffffffffffffffffffffffffff1673ffffffffffffffffffffffffffffffffffffffff163373ffffffffffffffffffffffffffffffffffffffff16145b806111795750600260009054906101000a900473ffffffffffffffffffffffffffffffffffffffff1673ffffffffffffffffffffffffffffffffffffffff163373ffffffffffffffffffffffffffffffffffffffff16145b806111d057506000809054906101000a900473ffffffffffffffffffffffffffffffffffffffff1673ffffffffffffffffffffffffffffffffffffffff163373ffffffffffffffffffffffffffffffffffffffff16145b151561126a576040517f08c379a00000000000000000000000000000000000000000000000000000000081526004018080602001828103825260218152602001807f4f6e6c79207061727469636970616e74206f72206f776e657220616c6c6f776581526020017f640000000000000000000000000000000000000000000000000000000000000081525060400191505060405180910390fd5b601c549b50601d549a50601e549950601f54985060205497506021549650602254955060235494506024549350602554925060265491506027549050909192939495969798999a9b565b601360009054906101000a900460ff1681565b60235481565b60145481565b600c5481565b600360009054906101000a900473ffffffffffffffffffffffffffffffffffffffff1673ffffffffffffffffffffffffffffffffffffffff163373ffffffffffffffffffffffffffffffffffffffff1614806113825750600460009054906101000a900473ffffffffffffffffffffffffffffffffffffffff1673ffffffffffffffffffffffffffffffffffffffff163373ffffffffffffffffffffffffffffffffffffffff16145b806113da5750600260009054906101000a900473ffffffffffffffffffffffffffffffffffffffff1673ffffffffffffffffffffffffffffffffffffffff163373ffffffffffffffffffffffffffffffffffffffff16145b151561144e576040517f08c379a00000000000000000000000000000000000000000000000000000000081526004018080602001828103825260188152602001807f4f6e6c79207061727469636970616e7420616c6c6f776564000000000000000081525060200191505060405180910390fd5b3373ffffffffffffffffffffffffffffffffffffffff16600260009054906101000a900473ffffffffffffffffffffffffffffffffffffffff1673ffffffffffffffffffffffffffffffffffffffff161480156114b85750601360009054906101000a900460ff16155b156115b0576007546006540134141515611586576040517f08c379a00000000000000000000000000000000000000000000000000000000081526004018080602001828103825260538152602001807f5768656e207369676e696e672061732073656e64657220746865206d73672e7681526020017f616c7565206d75737420626520657175616c7320746865207472616e73706f7281526020017f7420616e6420706c617466726f6d20636f73740000000000000000000000000081525060600191505060405180910390fd5b6001601360006101000a81548160ff02191690831515021790555042601481905550346008819055505b3373ffffffffffffffffffffffffffffffffffffffff16600360009054906101000a900473ffffffffffffffffffffffffffffffffffffffff1673ffffffffffffffffffffffffffffffffffffffff1614801561161a5750601560009054906101000a900460ff16155b15611642576001601560006101000a81548160ff021916908315150217905550426016819055505b3373ffffffffffffffffffffffffffffffffffffffff16600460009054906101000a900473ffffffffffffffffffffffffffffffffffffffff1673ffffffffffffffffffffffffffffffffffffffff161480156116ac5750601760009054906101000a900460ff16155b156116d4576001601760006101000a81548160ff021916908315150217905550426018819055505b565b60275481565b600260009054906101000a900473ffffffffffffffffffffffffffffffffffffffff1673ffffffffffffffffffffffffffffffffffffffff163373ffffffffffffffffffffffffffffffffffffffff161415156117a1576040517f08c379a00000000000000000000000000000000000000000000000000000000081526004018080602001828103825260148152602001807f6f6e6c792073656e64657220616c6c6f7765642100000000000000000000000081525060200191505060405180910390fd5b601360009054906101000a900460ff161515611825576040517f08c379a000000000000000000000000000000000000000000000000000000000815260040180806020018281038252601f8152602001807f53656e64657220686173206e6f74207369676e656420636f6e7472616374210081525060200191505060405180910390fd5b601560009054906101000a900460ff1615156118a9576040517f08c379a00000000000000000000000000000000000000000000000000000000081526004018080602001828103825260208152602001807f436f757269657220686173206e6f74207369676e656420636f6e74726163742181525060200191505060405180910390fd5b601760009054906101000a900460ff16151561192d576040517f08c379a00000000000000000000000000000000000000000000000000000000081526004018080602001828103825260208152602001807f526563656976657220686173206e6f74207369676e656420636f6e747261637481525060200191505060405180910390fd5b6000601a541415156119a7576040517f08c379a00000000000000000000000000000000000000000000000000000000081526004018080602001828103825260148152602001807f43616e6e6f742062652064656c6976657265642e00000000000000000000000081525060200191505060405180910390fd5b6000601954111515611a21576040517f08c379a00000000000000000000000000000000000000000000000000000000081526004018080602001828103825260198152602001807f50617263656c20776173206e6f74207069636b65642075702e0000000000000081525060200191505060405180910390fd5b42601b81905550600260009054906101000a900473ffffffffffffffffffffffffffffffffffffffff1673ffffffffffffffffffffffffffffffffffffffff166108fc6006549081150290604051600060405180830381858888f19350505050158015611a92573d6000803e3d6000fd5b50600560009054906101000a900473ffffffffffffffffffffffffffffffffffffffff1673ffffffffffffffffffffffffffffffffffffffff166108fc6007549081150290604051600060405180830381858888f19350505050158015611afd573d6000803e3d6000fd5b50565b601a5481565b601c5481565b601d5481565b600080600080600080600080600360009054906101000a900473ffffffffffffffffffffffffffffffffffffffff1673ffffffffffffffffffffffffffffffffffffffff163373ffffffffffffffffffffffffffffffffffffffff161480611bc75750600460009054906101000a900473ffffffffffffffffffffffffffffffffffffffff1673ffffffffffffffffffffffffffffffffffffffff163373ffffffffffffffffffffffffffffffffffffffff16145b80611c1f5750600260009054906101000a900473ffffffffffffffffffffffffffffffffffffffff1673ffffffffffffffffffffffffffffffffffffffff163373ffffffffffffffffffffffffffffffffffffffff16145b80611c7657506000809054906101000a900473ffffffffffffffffffffffffffffffffffffffff1673ffffffffffffffffffffffffffffffffffffffff163373ffffffffffffffffffffffffffffffffffffffff16145b1515611d10576040517f08c379a00000000000000000000000000000000000000000000000000000000081526004018080602001828103825260218152602001807f4f6e6c79207061727469636970616e74206f72206f776e657220616c6c6f776581526020017f640000000000000000000000000000000000000000000000000000000000000081525060400191505060405180910390fd5b600a549750600b549650600e549550600f549450600c549350600d549250601054915060115490509091929394959697565b600360009054906101000a900473ffffffffffffffffffffffffffffffffffffffff1673ffffffffffffffffffffffffffffffffffffffff163373ffffffffffffffffffffffffffffffffffffffff161480611deb5750600460009054906101000a900473ffffffffffffffffffffffffffffffffffffffff1673ffffffffffffffffffffffffffffffffffffffff163373ffffffffffffffffffffffffffffffffffffffff16145b80611e435750600260009054906101000a900473ffffffffffffffffffffffffffffffffffffffff1673ffffffffffffffffffffffffffffffffffffffff163373ffffffffffffffffffffffffffffffffffffffff16145b1515611eb7576040517f08c379a00000000000000000000000000000000000000000000000000000000081526004018080602001828103825260188152602001807f4f6e6c79207061727469636970616e7420616c6c6f776564000000000000000081525060200191505060405180910390fd5b6000601954141515611f31576040517f08c379a000000000000000000000000000000000000000000000000000000000815260040180806020018281038252601c8152602001807f7061636b61676520697320616c7265616479207069636b65642075700000000081525060200191505060405180910390fd5b600e54421080611f425750600f5442115b1515611fb6576040517f08c379a000000000000000000000000000000000000000000000000000000000815260040180806020018281038252601c8152602001807f43616e6e6f7420756e73696e6720696e207069636b75702074696d650000000081525060200191505060405180910390fd5b3373ffffffffffffffffffffffffffffffffffffffff16600260009054906101000a900473ffffffffffffffffffffffffffffffffffffffff1673ffffffffffffffffffffffffffffffffffffffff1614801561201f5750601360009054906101000a900460ff165b156120bf57600260009054906101000a900473ffffffffffffffffffffffffffffffffffffffff1673ffffffffffffffffffffffffffffffffffffffff166108fc600754600654019081150290604051600060405180830381858888f19350505050158015612092573d6000803e3d6000fd5b506000601360006101000a81548160ff021916908315150217905550600060148190555060006008819055505b3373ffffffffffffffffffffffffffffffffffffffff16600360009054906101000a900473ffffffffffffffffffffffffffffffffffffffff1673ffffffffffffffffffffffffffffffffffffffff161480156121285750601560009054906101000a900460ff165b15612151576000601560006101000a81548160ff02191690831515021790555060006016819055505b3373ffffffffffffffffffffffffffffffffffffffff16600460009054906101000a900473ffffffffffffffffffffffffffffffffffffffff1673ffffffffffffffffffffffffffffffffffffffff161480156121ba5750601760009054906101000a900460ff165b156121e3576000601760006101000a81548160ff02191690831515021790555060006018819055505b565b600360009054906101000a900473ffffffffffffffffffffffffffffffffffffffff1673ffffffffffffffffffffffffffffffffffffffff163373ffffffffffffffffffffffffffffffffffffffff16148061228e5750600260009054906101000a900473ffffffffffffffffffffffffffffffffffffffff1673ffffffffffffffffffffffffffffffffffffffff163373ffffffffffffffffffffffffffffffffffffffff16145b1515612302576040517f08c379a000000000000000000000000000000000000000000000000000000000815260040180806020018281038252601f8152602001807f6f6e6c792073656e646572206f7220636f757269657220616c6c6f776564210081525060200191505060405180910390fd5b601360009054906101000a900460ff161515612386576040517f08c379a000000000000000000000000000000000000000000000000000000000815260040180806020018281038252601f8152602001807f53656e64657220686173206e6f74207369676e656420636f6e7472616374210081525060200191505060405180910390fd5b601560009054906101000a900460ff16151561240a576040517f08c379a00000000000000000000000000000000000000000000000000000000081526004018080602001828103825260208152602001807f436f757269657220686173206e6f74207369676e656420636f6e74726163742181525060200191505060405180910390fd5b601760009054906101000a900460ff16151561248e576040517f08c379a00000000000000000000000000000000000000000000000000000000081526004018080602001828103825260208152602001807f526563656976657220686173206e6f74207369676e656420636f6e747261637481525060200191505060405180910390fd5b612498828261396e565b1515612532576040517f08c379a00000000000000000000000000000000000000000000000000000000081526004018080602001828103825260398152602001807f496e76616c6964206c6f6e676974756465206f72206c6174697475646520666f81526020017f72207265616479466f725069636b75702066756e6374696f6e0000000000000081525060400191505060405180910390fd5b61253e601154836139e6565b15156125d8576040517f08c379a00000000000000000000000000000000000000000000000000000000081526004018080602001828103825260258152602001807f4c6f6e67697475646520697320746f206661722066726f6d207069636b75702081526020017f706f696e7400000000000000000000000000000000000000000000000000000081525060400191505060405180910390fd5b6125e4601054826139e6565b151561267e576040517f08c379a00000000000000000000000000000000000000000000000000000000081526004018080602001828103825260248152602001807f4c6174697475646520697320746f206661722066726f6d207069636b7570207081526020017f6f696e740000000000000000000000000000000000000000000000000000000081525060400191505060405180910390fd5b3373ffffffffffffffffffffffffffffffffffffffff16600260009054906101000a900473ffffffffffffffffffffffffffffffffffffffff1673ffffffffffffffffffffffffffffffffffffffff1614156126ee5742601c8190555081601d8190555080601e8190555061275b565b3373ffffffffffffffffffffffffffffffffffffffff16600360009054906101000a900473ffffffffffffffffffffffffffffffffffffffff1673ffffffffffffffffffffffffffffffffffffffff16141561275a5742601f8190555081602081905550806021819055505b5b5050565b601760009054906101000a900460ff1681565b600360009054906101000a900473ffffffffffffffffffffffffffffffffffffffff1681565b60015481565b601b5481565b60195481565b600460009054906101000a900473ffffffffffffffffffffffffffffffffffffffff1673ffffffffffffffffffffffffffffffffffffffff163373ffffffffffffffffffffffffffffffffffffffff1614806128535750600260009054906101000a900473ffffffffffffffffffffffffffffffffffffffff1673ffffffffffffffffffffffffffffffffffffffff163373ffffffffffffffffffffffffffffffffffffffff16145b15156128ed576040517f08c379a00000000000000000000000000000000000000000000000000000000081526004018080602001828103825260218152602001807f6f6e6c79207265636569766572206f7220636f757269657220616c6c6f77656481526020017f210000000000000000000000000000000000000000000000000000000000000081525060400191505060405180910390fd5b601360009054906101000a900460ff161515612971576040517f08c379a000000000000000000000000000000000000000000000000000000000815260040180806020018281038252601f8152602001807f53656e64657220686173206e6f74207369676e656420636f6e7472616374210081525060200191505060405180910390fd5b601560009054906101000a900460ff1615156129f5576040517f08c379a00000000000000000000000000000000000000000000000000000000081526004018080602001828103825260208152602001807f436f757269657220686173206e6f74207369676e656420636f6e74726163742181525060200191505060405180910390fd5b601760009054906101000a900460ff161515612a79576040517f08c379a00000000000000000000000000000000000000000000000000000000081526004018080602001828103825260208152602001807f526563656976657220686173206e6f74207369676e656420636f6e747261637481525060200191505060405180910390fd5b612a83828261396e565b1515612b1d576040517f08c379a000000000000000000000000000000000000000000000000000000000815260040180806020018281038252603b8152602001807f496e76616c6964206c6f6e676974756465206f72206c6174697475646520666f81526020017f72207265616479466f7244656c69766572792066756e6374696f6e000000000081525060400191505060405180910390fd5b612b29600d54836139e6565b1515612bc3576040517f08c379a00000000000000000000000000000000000000000000000000000000081526004018080602001828103825260278152602001807f4c6f6e67697475646520697320746f206661722066726f6d2064656c6976657281526020017f7920706f696e740000000000000000000000000000000000000000000000000081525060400191505060405180910390fd5b612bcf600c54826139e6565b1515612c69576040517f08c379a00000000000000000000000000000000000000000000000000000000081526004018080602001828103825260268152602001807f4c6174697475646520697320746f206661722066726f6d2064656c697665727981526020017f20706f696e74000000000000000000000000000000000000000000000000000081525060400191505060405180910390fd5b3373ffffffffffffffffffffffffffffffffffffffff16600460009054906101000a900473ffffffffffffffffffffffffffffffffffffffff1673ffffffffffffffffffffffffffffffffffffffff161415612cd957426022819055508160238190555080602481905550612d46565b3373ffffffffffffffffffffffffffffffffffffffff16600360009054906101000a900473ffffffffffffffffffffffffffffffffffffffff1673ffffffffffffffffffffffffffffffffffffffff161415612d45574260258190555081602681905550806027819055505b5b5050565b60265481565b600260009054906101000a900473ffffffffffffffffffffffffffffffffffffffff1681565b60065481565b60125481565b60185481565b60225481565b60245481565b60165481565b6000809054906101000a900473ffffffffffffffffffffffffffffffffffffffff1681565b600a5481565b60115481565b600d5481565b601560009054906101000a900460ff1681565b600460009054906101000a900473ffffffffffffffffffffffffffffffffffffffff1673ffffffffffffffffffffffffffffffffffffffff163373ffffffffffffffffffffffffffffffffffffffff16141515612ea9576040517f08c379a00000000000000000000000000000000000000000000000000000000081526004018080602001828103825260168152602001807f6f6e6c7920726563696576657220616c6c6f776564210000000000000000000081525060200191505060405180910390fd5b601360009054906101000a900460ff161515612f2d576040517f08c379a000000000000000000000000000000000000000000000000000000000815260040180806020018281038252601f8152602001807f53656e64657220686173206e6f74207369676e656420636f6e7472616374210081525060200191505060405180910390fd5b601560009054906101000a900460ff161515612fb1576040517f08c379a00000000000000000000000000000000000000000000000000000000081526004018080602001828103825260208152602001807f436f757269657220686173206e6f74207369676e656420636f6e74726163742181525060200191505060405180910390fd5b601760009054906101000a900460ff161515613035576040517f08c379a00000000000000000000000000000000000000000000000000000000081526004018080602001828103825260208152602001807f526563656976657220686173206e6f74207369676e656420636f6e747261637481525060200191505060405180910390fd5b6000601a541415156130af576040517f08c379a00000000000000000000000000000000000000000000000000000000081526004018080602001828103825260158152602001807f43616e6e6f742064656c697665722074776963652e000000000000000000000081525060200191505060405180910390fd5b6000601954111515613129576040517f08c379a00000000000000000000000000000000000000000000000000000000081526004018080602001828103825260198152602001807f50617263656c20776173206e6f74207069636b65642075702e0000000000000081525060200191505060405180910390fd5b42601a81905550600b544211151561314057613141565b5b600360009054906101000a900473ffffffffffffffffffffffffffffffffffffffff1673ffffffffffffffffffffffffffffffffffffffff166108fc6006549081150290604051600060405180830381858888f193505050501580156131ab573d6000803e3d6000fd5b50600560009054906101000a900473ffffffffffffffffffffffffffffffffffffffff1673ffffffffffffffffffffffffffffffffffffffff166108fc6007549081150290604051600060405180830381858888f19350505050158015613216573d6000803e3d6000fd5b50565b60255481565b601e5481565b60075481565b60205481565b600b5481565b60105481565b600360009054906101000a900473ffffffffffffffffffffffffffffffffffffffff1673ffffffffffffffffffffffffffffffffffffffff163373ffffffffffffffffffffffffffffffffffffffff16141515613302576040517f08c379a00000000000000000000000000000000000000000000000000000000081526004018080602001828103825260158152602001807f6f6e6c7920636f757269657220616c6c6f77656421000000000000000000000081525060200191505060405180910390fd5b601360009054906101000a900460ff161515613386576040517f08c379a000000000000000000000000000000000000000000000000000000000815260040180806020018281038252601f8152602001807f53656e64657220686173206e6f74207369676e656420636f6e7472616374210081525060200191505060405180910390fd5b601560009054906101000a900460ff16151561340a576040517f08c379a00000000000000000000000000000000000000000000000000000000081526004018080602001828103825260208152602001807f436f757269657220686173206e6f74207369676e656420636f6e74726163742181525060200191505060405180910390fd5b601760009054906101000a900460ff16151561348e576040517f08c379a00000000000000000000000000000000000000000000000000000000081526004018080602001828103825260208152602001807f526563656976657220686173206e6f74207369676e656420636f6e747261637481525060200191505060405180910390fd5b6000601954141515613508576040517f08c379a00000000000000000000000000000000000000000000000000000000081526004018080602001828103825260138152602001807f43616e6e6f74207069636b75702074776963650000000000000000000000000081525060200191505060405180910390fd5b42601981905550565b601f5481565b60215481565b6000809054906101000a900473ffffffffffffffffffffffffffffffffffffffff1673ffffffffffffffffffffffffffffffffffffffff163373ffffffffffffffffffffffffffffffffffffffff1614151561357857600080fd5b600073ffffffffffffffffffffffffffffffffffffffff168173ffffffffffffffffffffffffffffffffffffffff16141515156135b457600080fd5b8073ffffffffffffffffffffffffffffffffffffffff166000809054906101000a900473ffffffffffffffffffffffffffffffffffffffff1673ffffffffffffffffffffffffffffffffffffffff167f8be0079c531659141344cd1fd0a4f28419497f9722a3daafe3b4186f6b6457e060405160405180910390a3806000806101000a81548173ffffffffffffffffffffffffffffffffffffffff021916908373ffffffffffffffffffffffffffffffffffffffff16021790555050565b600f5481565b60095481565b600460009054906101000a900473ffffffffffffffffffffffffffffffffffffffff1681565b600e5481565b600560009054906101000a900473ffffffffffffffffffffffffffffffffffffffff1681565b6000806000806000806000806000600360009054906101000a900473ffffffffffffffffffffffffffffffffffffffff1673ffffffffffffffffffffffffffffffffffffffff163373ffffffffffffffffffffffffffffffffffffffff1614806137875750600460009054906101000a900473ffffffffffffffffffffffffffffffffffffffff1673ffffffffffffffffffffffffffffffffffffffff163373ffffffffffffffffffffffffffffffffffffffff16145b806137df5750600260009054906101000a900473ffffffffffffffffffffffffffffffffffffffff1673ffffffffffffffffffffffffffffffffffffffff163373ffffffffffffffffffffffffffffffffffffffff16145b8061383657506000809054906101000a900473ffffffffffffffffffffffffffffffffffffffff1673ffffffffffffffffffffffffffffffffffffffff163373ffffffffffffffffffffffffffffffffffffffff16145b15156138d0576040517f08c379a00000000000000000000000000000000000000000000000000000000081526004018080602001828103825260218152602001807f4f6e6c79207061727469636970616e74206f72206f776e657220616c6c6f776581526020017f640000000000000000000000000000000000000000000000000000000000000081525060400191505060405180910390fd5b600154985060075496506012549750600260009054906101000a900473ffffffffffffffffffffffffffffffffffffffff169550600360009054906101000a900473ffffffffffffffffffffffffffffffffffffffff169450600460009054906101000a900473ffffffffffffffffffffffffffffffffffffffff169350600654925060085491506009549050909192939495969798565b60085481565b60007ffffffffffffffffffffffffffffffffffffffffffffffffffffffffbcf1dcc00831380156139a35750640430e2340083125b80156139de57507ffffffffffffffffffffffffffffffffffffffffffffffffffffffffe050e46d2821380156139dd57506401faf1b92e82125b5b905092915050565b60008082840390506000811215613a1d577fffffffffffffffffffffffffffffffffffffffffffffffffffffffffffffffff810290505b601254811315915050929150505600a165627a7a72305820ff4ed8f915bb24ed2fcfbcf59a60c5948a8f468c79574fe1c2e38c28db9fa8310029",
  "source": "pragma solidity ^0.4.24;\r\n\r\nimport \"./Ownable.sol\";\r\nimport \"./Rejector.sol\";\r\n\r\ncontract ParcelContract is Ownable, Rejector {\r\n    \r\n    bytes32 public version = \"1.0\";\r\n    address public sender;\r\n    address public courier;\r\n    address public receiver;\r\n    address public platformWallet = address(0x2f19621DCa80D7CCb5fC9eEF427eA2De92596CA8);\r\n    \r\n    uint256 public transportCost = 0;\r\n    uint256 public platformCost = 0;\r\n    uint256 public weiLockedBySender = 0;\r\n    \r\n    // parcel data\r\n    bytes32 public parcelHash; \r\n    \r\n    // delivery data\r\n    uint256 public deliveryStart = 0;\r\n    uint256 public deliveryEnd = 0;\r\n    int public deliveryLatitude = 0;\r\n    int public deliveryLongitude = 0;\r\n    \r\n    // pickup data\r\n    uint256 public pickupStart = 0;\r\n    uint256 public pickupEnd = 0;\r\n    int public pickupLatitude = 0;\r\n    int public pickupLongitude = 0;\r\n\r\n    int public accuracyDeliveryAndPickup = 0;\r\n    \r\n    bool public senderSigned  = false;\r\n    uint256 public senderSignedTimeStamp = 0;\r\n    \r\n    bool public courierSigned  = false;\r\n    uint256 public courierSignedTimeStamp = 0;\r\n    \r\n    bool public receiverSigned = false;\r\n    uint256 public receiverSignedTimeStamp = 0;\r\n    \r\n    uint256 public pickupTimeStamp = 0; \r\n    uint256 public deliveredTimeStamp = 0;\r\n    uint256 public deliveredToSenderTimeStamp = 0;\r\n    \r\n    uint256 public readyForPickupTimeStampSender = 0;\r\n    int public readyForPickupLongitudeSender = 0;\r\n    int public readyForPickupLatitudeSender = 0;\r\n    \r\n    uint256 public readyForPickupTimeStampCourier = 0;\r\n    int public readyForPickupLongitudeCourier = 0;\r\n    int public readyForPickupLatitudeCourier = 0;\r\n    \r\n    uint256 public readyForDeliveryTimeStampReceiver = 0;\r\n    int public readyForDeliveryLongitudeReceiver = 0;\r\n    int public readyForDeliveryLatitudeReceiver = 0;\r\n    \r\n    uint256 public readyForDeliveryTimeStampCourier = 0;\r\n    int public readyForDeliveryLongitudeCourier = 0;\r\n    int public readyForDeliveryLatitudeCourier = 0;\r\n\r\n    constructor\r\n    (\r\n        address _owner, \r\n        address _sender, \r\n        address _courier, \r\n        address _receiver,  \r\n        bytes32 _parcelHash, \r\n        uint256 _transportCost, \r\n        uint256 _platformCost, \r\n        int _deliveryLongitude, \r\n        int _deliveryLatitude, \r\n        int _pickupLongitude, \r\n        int _pickupLatitude, \r\n        int _accuracyDeliveryAndPickup, \r\n        uint256 _deliveryStart, \r\n        uint256 _deliveryEnd, \r\n        uint256 _pickupStart, \r\n        uint256 _pickupEnd\r\n    ) public {\r\n        require(isValidLongitudeAndLatitude(_deliveryLongitude, _deliveryLatitude), \"Invalid delivery longitude or latitude\");\r\n        require(isValidLongitudeAndLatitude(_pickupLongitude, _pickupLatitude), \"Invalid pickup longitude or latitude\");\r\n        require(_accuracyDeliveryAndPickup >= 50 && _accuracyDeliveryAndPickup <= 150, \"accuracy of delivery and pickup is not between 50 and 150\");\r\n        \r\n        owner = _owner;\r\n        sender = _sender;\r\n        courier = _courier;\r\n        receiver = _receiver;\r\n        \r\n        parcelHash = _parcelHash;\r\n        \r\n        transportCost = _transportCost;\r\n        platformCost = _platformCost;\r\n        \r\n        accuracyDeliveryAndPickup = _accuracyDeliveryAndPickup;\r\n        deliveryLatitude = _deliveryLatitude;\r\n        deliveryLongitude = _deliveryLongitude;\r\n        pickupLatitude = _pickupLatitude;\r\n        pickupLongitude = _pickupLongitude;\r\n        \r\n        pickupStart = _pickupStart;\r\n        pickupEnd = _pickupEnd;\r\n        deliveryStart = _deliveryStart;\r\n        deliveryEnd = _deliveryEnd;\r\n    }\r\n    \r\n    function sign() public payable onlyParticipant {\r\n        if(sender == msg.sender && !senderSigned)\r\n        {\r\n            require(msg.value == (transportCost + platformCost), \"When signing as sender the msg.value must be equals the transport and platfrom cost\");\r\n            senderSigned = true;\r\n            senderSignedTimeStamp = now;\r\n            \r\n            weiLockedBySender = msg.value;\r\n        }\r\n        if(courier == msg.sender && !courierSigned)\r\n        {\r\n            courierSigned = true;\r\n            courierSignedTimeStamp = now;    \r\n        }\r\n        if(receiver == msg.sender && !receiverSigned)\r\n        {\r\n            receiverSigned = true;\r\n            receiverSignedTimeStamp = now;    \r\n        }\r\n    }\r\n    \r\n    function unsign() public onlyParticipant {\r\n        require(pickupTimeStamp == 0, \"package is already picked up\");\r\n        require(now < pickupStart  || now > pickupEnd, \"Cannot unsing in pickup time\");\r\n        \r\n        \r\n        if(sender == msg.sender && senderSigned)\r\n        {\r\n            sender.transfer(transportCost + platformCost);\r\n            senderSigned = false;\r\n            senderSignedTimeStamp = 0;\r\n            \r\n            weiLockedBySender = 0;\r\n        }\r\n        if(courier == msg.sender && courierSigned)\r\n        {\r\n            courierSigned = false;\r\n            courierSignedTimeStamp = 0;    \r\n        }\r\n        if(receiver == msg.sender && receiverSigned)\r\n        {\r\n            receiverSigned = false;\r\n            receiverSignedTimeStamp = 0;    \r\n        }\r\n    }\r\n    \r\n    function pickup() public onlyCourier onlySignedContract {\r\n        require(pickupTimeStamp == 0, \"Cannot pickup twice\");\r\n        pickupTimeStamp = now;\r\n    }\r\n    \r\n    function delivered() public onlyReceiver onlySignedContract {\r\n        require(deliveredTimeStamp == 0, \"Cannot deliver twice.\");\r\n        require (pickupTimeStamp > 0, \"Parcel was not picked up.\");\r\n        deliveredTimeStamp = now;\r\n        \r\n        if(now <= deliveryEnd) {\r\n            // add reward to transport transportcost\r\n        }\r\n        else {\r\n            // return reward to sender\r\n        }\r\n        courier.transfer(transportCost);\r\n        platformWallet.transfer(platformCost);\r\n    }\r\n    \r\n    function deliveredToSender() public onlySender onlySignedContract {\r\n        require(deliveredTimeStamp == 0, \"Cannot be delivered.\");\r\n        require (pickupTimeStamp > 0, \"Parcel was not picked up.\");\r\n        deliveredToSenderTimeStamp = now;\r\n        \r\n        sender.transfer(transportCost);\r\n        platformWallet.transfer(platformCost);\r\n    }\r\n    \r\n    function readyForPickup(int longitude, int latitude) public onlyCourierOrSender onlySignedContract {\r\n        require(isValidLongitudeAndLatitude(longitude, latitude), \"Invalid longitude or latitude for readyForPickup function\");\r\n        require(nearbyPickupOrdDelivery(pickupLongitude, longitude), \"Longitude is to far from pickup point\");\r\n        require(nearbyPickupOrdDelivery(pickupLatitude, latitude), \"Latitude is to far from pickup point\");\r\n        \r\n        if(sender == msg.sender)\r\n        {\r\n            readyForPickupTimeStampSender = now;\r\n            readyForPickupLongitudeSender = longitude;\r\n            readyForPickupLatitudeSender = latitude;\r\n        }\r\n        else if(courier == msg.sender)\r\n        {\r\n            readyForPickupTimeStampCourier = now;\r\n            readyForPickupLongitudeCourier = longitude;\r\n            readyForPickupLatitudeCourier  = latitude;\r\n        }\r\n    }\r\n    \r\n    function readyForDelivery(int longitude, int latitude) public onlyCourierOrReceiver onlySignedContract {\r\n        require(isValidLongitudeAndLatitude(longitude, latitude), \"Invalid longitude or latitude for readyForDelivery function\");\r\n        require(nearbyPickupOrdDelivery(deliveryLongitude, longitude), \"Longitude is to far from delivery point\");\r\n        require(nearbyPickupOrdDelivery(deliveryLatitude, latitude), \"Latitude is to far from delivery point\");\r\n        \r\n        if(receiver == msg.sender)\r\n        {\r\n            readyForDeliveryTimeStampReceiver = now;\r\n            readyForDeliveryLongitudeReceiver = longitude;\r\n            readyForDeliveryLatitudeReceiver = latitude;\r\n        }\r\n        else if(courier == msg.sender)\r\n        {\r\n            readyForDeliveryTimeStampCourier = now;\r\n            readyForDeliveryLongitudeCourier = longitude;\r\n            readyForDeliveryLatitudeCourier  = latitude;\r\n        }\r\n    }\r\n    \r\n    function readReadyEvents() public view onlyParticipantAndOwner returns\r\n    (\r\n        uint256 _readyForPickupTimeStampSender,\r\n        int _readyForPickupLongitudeSender,\r\n        int _readyForPickupLatitudeSender,\r\n        uint256 _readyForPickupTimeStampCourier,\r\n        int _readyForPickupLongitudeCourier,\r\n        int _readyForPickupLatitudeCourier,\r\n        uint256 _readyForDeliveryTimeStampReceiver,\r\n        int _readyForDeliveryLongitudeReceiver,\r\n        int _readyForDeliveryLatitudeReceiver,\r\n        uint256 _readyForDeliveryTimeStampCourier,\r\n        int _readyForDeliveryLongitudeCourier,\r\n        int _readyForDeliveryLatitudeCourier\r\n    ) {\r\n        _readyForPickupTimeStampSender = readyForPickupTimeStampSender;\r\n        _readyForPickupLongitudeSender = readyForPickupLongitudeSender;\r\n        _readyForPickupLatitudeSender = readyForPickupLatitudeSender;\r\n        _readyForPickupTimeStampCourier = readyForPickupTimeStampCourier;\r\n        _readyForPickupLongitudeCourier = readyForPickupLongitudeCourier;\r\n        _readyForPickupLatitudeCourier = readyForPickupLatitudeCourier;\r\n        _readyForDeliveryTimeStampReceiver = readyForDeliveryTimeStampReceiver;\r\n        _readyForDeliveryLongitudeReceiver = readyForDeliveryLongitudeReceiver;\r\n        _readyForDeliveryLatitudeReceiver = readyForDeliveryLatitudeReceiver;\r\n        _readyForDeliveryTimeStampCourier = readyForDeliveryTimeStampCourier;\r\n        _readyForDeliveryLongitudeCourier = readyForDeliveryLongitudeCourier;\r\n        _readyForDeliveryLatitudeCourier = readyForDeliveryLatitudeCourier;\r\n    }\r\n    \r\n    function readMainEvents() public view onlyParticipantAndOwner returns\r\n    (\r\n        bool _senderSigned,\r\n        uint256 _senderSignedTimeStamp,\r\n        bool _courierSigned,\r\n        uint256 _courierSignedTimeStamp,\r\n        bool _receiverSigned,\r\n        uint256 _receiverSignedTimeStamp,\r\n        uint256 _pickupTimeStamp,\r\n        uint256 _deliveredTimeStamp,\r\n        uint256 _deliveredToSenderTimeStamp\r\n    ) {\r\n        _senderSigned = senderSigned;\r\n        _senderSignedTimeStamp = senderSignedTimeStamp;\r\n        _courierSigned = courierSigned;\r\n        _courierSignedTimeStamp = courierSignedTimeStamp;\r\n        _receiverSigned = receiverSigned;\r\n        _receiverSignedTimeStamp = receiverSignedTimeStamp;\r\n        _pickupTimeStamp = pickupTimeStamp;\r\n        _deliveredTimeStamp = deliveredTimeStamp;\r\n        _deliveredToSenderTimeStamp = deliveredToSenderTimeStamp;\r\n    }\r\n    \r\n    function readDetails() public view onlyParticipantAndOwner returns\r\n    (\r\n        bytes32 _version,\r\n        int _accuracyDeliveryAndPickup,\r\n        uint256 _platformCost,\r\n        address _sender,\r\n        address _courier,\r\n        address _receiver,\r\n        uint256 _transportCost,\r\n        uint256 _weiLockedBySender,\r\n        bytes32 _parcelHash\r\n    ) {\r\n        _version = version;\r\n        _platformCost = platformCost;\r\n        _accuracyDeliveryAndPickup = accuracyDeliveryAndPickup;\r\n        _sender = sender;\r\n        _courier = courier;\r\n        _receiver = receiver;\r\n        _transportCost = transportCost;\r\n        _weiLockedBySender = weiLockedBySender;\r\n        _parcelHash = parcelHash;\r\n    }\r\n    \r\n    function readPickupAndDeliveryDetails() public view onlyParticipantAndOwner returns\r\n    (\r\n        uint256 _deliveryStart,\r\n        uint256 _deliveryEnd,\r\n        uint256 _pickupStart,\r\n        uint256 _pickupEnd,\r\n        int _deliveryLatitude,\r\n        int _deliveryLongitude,\r\n        int _pickupLatitude,\r\n        int _pickupLongitude\r\n    ) {\r\n        _deliveryStart = deliveryStart;\r\n        _deliveryEnd = deliveryEnd;\r\n        _pickupStart = pickupStart;\r\n        _pickupEnd = pickupEnd;\r\n        _deliveryLatitude = deliveryLatitude;\r\n        _deliveryLongitude = deliveryLongitude;\r\n        _pickupLatitude = pickupLatitude;\r\n        _pickupLongitude = pickupLongitude;\r\n    }\r\n\r\n    \r\n    function nearbyPickupOrdDelivery(int pointA, int pointB) private view returns (bool) {\r\n        int result = pointA - pointB;\r\n        if(result < 0)\r\n            result = result * -1;\r\n            \r\n        return result <= accuracyDeliveryAndPickup;\r\n    }\r\n    \r\n    function isValidLongitudeAndLatitude(int256 longitude, int256 latitude) private pure returns (bool) {\r\n        return ((longitude > -18000000000 && longitude < 18000000000) && (latitude > -8505112878 && latitude < 8505112878));\r\n    }\r\n    \r\n    modifier onlySender() {\r\n        require (msg.sender == sender, \"only sender allowed!\");\r\n        _;\r\n    }\r\n    \r\n    modifier onlyCourier() {\r\n        require (msg.sender == courier, \"only courier allowed!\");\r\n        _;\r\n    }\r\n    \r\n    modifier onlyReceiver() {\r\n        require (msg.sender == receiver, \"only reciever allowed!\");\r\n        _;\r\n    }\r\n    \r\n    modifier onlyCourierOrSender() {\r\n        require (msg.sender == courier || msg.sender == sender, \"only sender or courier allowed!\");\r\n        _;\r\n    }\r\n    \r\n    modifier onlyCourierOrReceiver() {\r\n        require (msg.sender == receiver || msg.sender == sender, \"only receiver or courier allowed!\");\r\n        _;\r\n    }\r\n    \r\n    modifier onlyParticipant() {\r\n        require (msg.sender == courier || msg.sender == receiver || msg.sender == sender, \"Only participant allowed\");\r\n        _;\r\n    }\r\n    modifier onlyParticipantAndOwner() {\r\n        require (msg.sender == courier || msg.sender == receiver || msg.sender == sender || msg.sender == owner, \"Only participant or owner allowed\");\r\n        _;\r\n    }\r\n    modifier onlySignedContract() {\r\n        require(senderSigned, \"Sender has not signed contract!\");\r\n        require(courierSigned, \"Courier has not signed contract!\");\r\n        require(receiverSigned, \"Receiver has not signed contract\");\r\n        _;\r\n    }\r\n}",
  "sourcePath": "C:\\PROJECTS\\blockchain-secured-parcel-service\\Nodejs\\init\\contracts\\ParcelContract.sol",
  "compiler": {
    "name": "solc",
    "version": "0.4.24+commit.e67f0147.Emscripten.clang"
  },
  "schemaVersion": "2.0.1",
  "updatedAt": "2019-01-06T19:45:13.556Z"
}