{
  "contractName": "ParcelContract",
  "abi": [
    {
      "constant": true,
      "inputs": [],
      "name": "senderSigned",
      "outputs": [
        {
          "name": "",
          "type": "bool"
        }
      ],
      "payable": false,
      "stateMutability": "view",
      "type": "function"
    },
    {
      "constant": true,
      "inputs": [],
      "name": "readyForDeliveryLongitudeReceiver",
      "outputs": [
        {
          "name": "",
          "type": "int256"
        }
      ],
      "payable": false,
      "stateMutability": "view",
      "type": "function"
    },
    {
      "constant": true,
      "inputs": [],
      "name": "senderSignedTimeStamp",
      "outputs": [
        {
          "name": "",
          "type": "uint256"
        }
      ],
      "payable": false,
      "stateMutability": "view",
      "type": "function"
    },
    {
      "constant": true,
      "inputs": [],
      "name": "deliveryLatitude",
      "outputs": [
        {
          "name": "",
          "type": "int256"
        }
      ],
      "payable": false,
      "stateMutability": "view",
      "type": "function"
    },
    {
      "constant": true,
      "inputs": [],
      "name": "readyForDeliveryLatitudeCourier",
      "outputs": [
        {
          "name": "",
          "type": "int256"
        }
      ],
      "payable": false,
      "stateMutability": "view",
      "type": "function"
    },
    {
      "constant": true,
      "inputs": [],
      "name": "deliveredTimeStamp",
      "outputs": [
        {
          "name": "",
          "type": "uint256"
        }
      ],
      "payable": false,
      "stateMutability": "view",
      "type": "function"
    },
    {
      "constant": true,
      "inputs": [],
      "name": "readyForPickupTimeStampSender",
      "outputs": [
        {
          "name": "",
          "type": "uint256"
        }
      ],
      "payable": false,
      "stateMutability": "view",
      "type": "function"
    },
    {
      "constant": true,
      "inputs": [],
      "name": "readyForPickupLongitudeSender",
      "outputs": [
        {
          "name": "",
          "type": "int256"
        }
      ],
      "payable": false,
      "stateMutability": "view",
      "type": "function"
    },
    {
      "constant": true,
      "inputs": [],
      "name": "receiverSigned",
      "outputs": [
        {
          "name": "",
          "type": "bool"
        }
      ],
      "payable": false,
      "stateMutability": "view",
      "type": "function"
    },
    {
      "constant": true,
      "inputs": [],
      "name": "courier",
      "outputs": [
        {
          "name": "",
          "type": "address"
        }
      ],
      "payable": false,
      "stateMutability": "view",
      "type": "function"
    },
    {
      "constant": true,
      "inputs": [],
      "name": "version",
      "outputs": [
        {
          "name": "",
          "type": "bytes32"
        }
      ],
      "payable": false,
      "stateMutability": "view",
      "type": "function"
    },
    {
      "constant": true,
      "inputs": [],
      "name": "deliveredToSenderTimeStamp",
      "outputs": [
        {
          "name": "",
          "type": "uint256"
        }
      ],
      "payable": false,
      "stateMutability": "view",
      "type": "function"
    },
    {
      "constant": true,
      "inputs": [],
      "name": "pickupTimeStamp",
      "outputs": [
        {
          "name": "",
          "type": "uint256"
        }
      ],
      "payable": false,
      "stateMutability": "view",
      "type": "function"
    },
    {
      "constant": true,
      "inputs": [],
      "name": "readyForDeliveryLongitudeCourier",
      "outputs": [
        {
          "name": "",
          "type": "int256"
        }
      ],
      "payable": false,
      "stateMutability": "view",
      "type": "function"
    },
    {
      "constant": true,
      "inputs": [],
      "name": "sender",
      "outputs": [
        {
          "name": "",
          "type": "address"
        }
      ],
      "payable": false,
      "stateMutability": "view",
      "type": "function"
    },
    {
      "constant": true,
      "inputs": [],
      "name": "transportCost",
      "outputs": [
        {
          "name": "",
          "type": "uint256"
        }
      ],
      "payable": false,
      "stateMutability": "view",
      "type": "function"
    },
    {
      "constant": true,
      "inputs": [],
      "name": "accuracyDeliveryAndPickup",
      "outputs": [
        {
          "name": "",
          "type": "int256"
        }
      ],
      "payable": false,
      "stateMutability": "view",
      "type": "function"
    },
    {
      "constant": true,
      "inputs": [],
      "name": "receiverSignedTimeStamp",
      "outputs": [
        {
          "name": "",
          "type": "uint256"
        }
      ],
      "payable": false,
      "stateMutability": "view",
      "type": "function"
    },
    {
      "constant": true,
      "inputs": [],
      "name": "readyForDeliveryTimeStampReceiver",
      "outputs": [
        {
          "name": "",
          "type": "uint256"
        }
      ],
      "payable": false,
      "stateMutability": "view",
      "type": "function"
    },
    {
      "constant": true,
      "inputs": [],
      "name": "readyForDeliveryLatitudeReceiver",
      "outputs": [
        {
          "name": "",
          "type": "int256"
        }
      ],
      "payable": false,
      "stateMutability": "view",
      "type": "function"
    },
    {
      "constant": true,
      "inputs": [],
      "name": "courierSignedTimeStamp",
      "outputs": [
        {
          "name": "",
          "type": "uint256"
        }
      ],
      "payable": false,
      "stateMutability": "view",
      "type": "function"
    },
    {
      "constant": true,
      "inputs": [],
      "name": "owner",
      "outputs": [
        {
          "name": "",
          "type": "address"
        }
      ],
      "payable": false,
      "stateMutability": "view",
      "type": "function"
    },
    {
      "constant": true,
      "inputs": [],
      "name": "deliveryStart",
      "outputs": [
        {
          "name": "",
          "type": "uint256"
        }
      ],
      "payable": false,
      "stateMutability": "view",
      "type": "function"
    },
    {
      "constant": true,
      "inputs": [],
      "name": "pickupLongitude",
      "outputs": [
        {
          "name": "",
          "type": "int256"
        }
      ],
      "payable": false,
      "stateMutability": "view",
      "type": "function"
    },
    {
      "constant": true,
      "inputs": [],
      "name": "deliveryLongitude",
      "outputs": [
        {
          "name": "",
          "type": "int256"
        }
      ],
      "payable": false,
      "stateMutability": "view",
      "type": "function"
    },
    {
      "constant": true,
      "inputs": [],
      "name": "courierSigned",
      "outputs": [
        {
          "name": "",
          "type": "bool"
        }
      ],
      "payable": false,
      "stateMutability": "view",
      "type": "function"
    },
    {
      "constant": true,
      "inputs": [],
      "name": "readyForDeliveryTimeStampCourier",
      "outputs": [
        {
          "name": "",
          "type": "uint256"
        }
      ],
      "payable": false,
      "stateMutability": "view",
      "type": "function"
    },
    {
      "constant": true,
      "inputs": [],
      "name": "readyForPickupLatitudeSender",
      "outputs": [
        {
          "name": "",
          "type": "int256"
        }
      ],
      "payable": false,
      "stateMutability": "view",
      "type": "function"
    },
    {
      "constant": true,
      "inputs": [],
      "name": "platformCost",
      "outputs": [
        {
          "name": "",
          "type": "uint256"
        }
      ],
      "payable": false,
      "stateMutability": "view",
      "type": "function"
    },
    {
      "constant": true,
      "inputs": [],
      "name": "pickupAddress",
      "outputs": [
        {
          "name": "",
          "type": "bytes32"
        }
      ],
      "payable": false,
      "stateMutability": "view",
      "type": "function"
    },
    {
      "constant": true,
      "inputs": [],
      "name": "readyForPickupLongitudeCourier",
      "outputs": [
        {
          "name": "",
          "type": "int256"
        }
      ],
      "payable": false,
      "stateMutability": "view",
      "type": "function"
    },
    {
      "constant": true,
      "inputs": [],
      "name": "deliveryEnd",
      "outputs": [
        {
          "name": "",
          "type": "uint256"
        }
      ],
      "payable": false,
      "stateMutability": "view",
      "type": "function"
    },
    {
      "constant": true,
      "inputs": [],
      "name": "pickupLatitude",
      "outputs": [
        {
          "name": "",
          "type": "int256"
        }
      ],
      "payable": false,
      "stateMutability": "view",
      "type": "function"
    },
    {
      "constant": true,
      "inputs": [],
      "name": "readyForPickupTimeStampCourier",
      "outputs": [
        {
          "name": "",
          "type": "uint256"
        }
      ],
      "payable": false,
      "stateMutability": "view",
      "type": "function"
    },
    {
      "constant": true,
      "inputs": [],
      "name": "readyForPickupLatitudeCourier",
      "outputs": [
        {
          "name": "",
          "type": "int256"
        }
      ],
      "payable": false,
      "stateMutability": "view",
      "type": "function"
    },
    {
      "constant": false,
      "inputs": [
        {
          "name": "newOwner",
          "type": "address"
        }
      ],
      "name": "transferOwnership",
      "outputs": [],
      "payable": false,
      "stateMutability": "nonpayable",
      "type": "function"
    },
    {
      "constant": true,
      "inputs": [],
      "name": "pickupEnd",
      "outputs": [
        {
          "name": "",
          "type": "uint256"
        }
      ],
      "payable": false,
      "stateMutability": "view",
      "type": "function"
    },
    {
      "constant": true,
      "inputs": [],
      "name": "parcelHash",
      "outputs": [
        {
          "name": "",
          "type": "bytes32"
        }
      ],
      "payable": false,
      "stateMutability": "view",
      "type": "function"
    },
    {
      "constant": true,
      "inputs": [],
      "name": "receiver",
      "outputs": [
        {
          "name": "",
          "type": "address"
        }
      ],
      "payable": false,
      "stateMutability": "view",
      "type": "function"
    },
    {
      "constant": true,
      "inputs": [],
      "name": "pickupStart",
      "outputs": [
        {
          "name": "",
          "type": "uint256"
        }
      ],
      "payable": false,
      "stateMutability": "view",
      "type": "function"
    },
    {
      "constant": true,
      "inputs": [],
      "name": "platformWallet",
      "outputs": [
        {
          "name": "",
          "type": "address"
        }
      ],
      "payable": false,
      "stateMutability": "view",
      "type": "function"
    },
    {
      "constant": true,
      "inputs": [],
      "name": "weiLockedBySender",
      "outputs": [
        {
          "name": "",
          "type": "uint256"
        }
      ],
      "payable": false,
      "stateMutability": "view",
      "type": "function"
    },
    {
      "inputs": [
        {
          "name": "_owner",
          "type": "address"
        },
        {
          "name": "_sender",
          "type": "address"
        },
        {
          "name": "_courier",
          "type": "address"
        },
        {
          "name": "_receiver",
          "type": "address"
        },
        {
          "name": "_parcelHash",
          "type": "bytes32"
        },
        {
          "name": "_transportCost",
          "type": "uint256"
        },
        {
          "name": "_platformCost",
          "type": "uint256"
        },
        {
          "name": "_deliveryLongitude",
          "type": "int256"
        },
        {
          "name": "_deliveryLatitude",
          "type": "int256"
        },
        {
          "name": "_pickupLongitude",
          "type": "int256"
        },
        {
          "name": "_pickupLatitude",
          "type": "int256"
        },
        {
          "name": "_accuracyDeliveryAndPickup",
          "type": "int256"
        },
        {
          "name": "_deliveryStart",
          "type": "uint256"
        },
        {
          "name": "_deliveryEnd",
          "type": "uint256"
        },
        {
          "name": "_pickupStart",
          "type": "uint256"
        },
        {
          "name": "_pickupEnd",
          "type": "uint256"
        }
      ],
      "payable": false,
      "stateMutability": "nonpayable",
      "type": "constructor"
    },
    {
      "payable": true,
      "stateMutability": "payable",
      "type": "fallback"
    },
    {
      "anonymous": false,
      "inputs": [
        {
          "indexed": true,
          "name": "previousOwner",
          "type": "address"
        },
        {
          "indexed": true,
          "name": "newOwner",
          "type": "address"
        }
      ],
      "name": "OwnershipTransferred",
      "type": "event"
    },
    {
      "constant": false,
      "inputs": [],
      "name": "sign",
      "outputs": [],
      "payable": true,
      "stateMutability": "payable",
      "type": "function"
    },
    {
      "constant": false,
      "inputs": [],
      "name": "unsign",
      "outputs": [],
      "payable": false,
      "stateMutability": "nonpayable",
      "type": "function"
    },
    {
      "constant": false,
      "inputs": [],
      "name": "pickup",
      "outputs": [],
      "payable": false,
      "stateMutability": "nonpayable",
      "type": "function"
    },
    {
      "constant": false,
      "inputs": [],
      "name": "delivered",
      "outputs": [],
      "payable": false,
      "stateMutability": "nonpayable",
      "type": "function"
    },
    {
      "constant": false,
      "inputs": [],
      "name": "deliverdToSender",
      "outputs": [],
      "payable": false,
      "stateMutability": "nonpayable",
      "type": "function"
    },
    {
      "constant": false,
      "inputs": [
        {
          "name": "longitude",
          "type": "int256"
        },
        {
          "name": "latidude",
          "type": "int256"
        }
      ],
      "name": "readyForPickup",
      "outputs": [],
      "payable": false,
      "stateMutability": "nonpayable",
      "type": "function"
    },
    {
      "constant": false,
      "inputs": [
        {
          "name": "longitude",
          "type": "int256"
        },
        {
          "name": "latidude",
          "type": "int256"
        }
      ],
      "name": "readyForDelivery",
      "outputs": [],
      "payable": false,
      "stateMutability": "nonpayable",
      "type": "function"
    }
  ],
  "bytecode": "0x60806040527f312e30000000000000000000000000000000000000000000000000000000000060019060001916905573dd870fa1b7c4700f2bd7f44238821c26f7392148600560006101000a81548173ffffffffffffffffffffffffffffffffffffffff021916908373ffffffffffffffffffffffffffffffffffffffff1602179055506000600655600060075560006008556000600b556000600c556000600e556000600f556000601060006101000a81548160ff02191690831515021790555060006011556000601260006101000a81548160ff02191690831515021790555060006013556000601460006101000a81548160ff021916908315150217905550600060155560006016556000601755600060185560006019556000601a556000601b556000601c556000601d556000601e556000601f5560006020556000602155600060225560006023556000602455600060255560006026556000602755600060285560006029553480156200017757600080fd5b50604051610200806200354983398101806040528101908080519060200190929190805190602001909291908051906020019092919080519060200190929190805190602001909291908051906020019092919080519060200190929190805190602001909291908051906020019092919080519060200190929190805190602001909291908051906020019092919080519060200190929190805190602001909291908051906020019092919080519060200190929190505050336000806101000a81548173ffffffffffffffffffffffffffffffffffffffff021916908373ffffffffffffffffffffffffffffffffffffffff1602179055506200028d8989620005fd640100000000026401000000009004565b151562000328576040517f08c379a00000000000000000000000000000000000000000000000000000000081526004018080602001828103825260268152602001807f496e76616c69642064656c6976657279206c6f6e676974756465206f72206c6181526020017f746974756465000000000000000000000000000000000000000000000000000081525060400191505060405180910390fd5b620003438787620005fd640100000000026401000000009004565b1515620003de576040517f08c379a00000000000000000000000000000000000000000000000000000000081526004018080602001828103825260248152602001807f496e76616c6964207069636b7570206c6f6e676974756465206f72206c61746981526020017f747564650000000000000000000000000000000000000000000000000000000081525060400191505060405180910390fd5b60328512158015620003f1575060968513155b15156200048c576040517f08c379a00000000000000000000000000000000000000000000000000000000081526004018080602001828103825260398152602001807f6163637572616379206f662064656c697665727920616e64207069636b75702081526020017f6973206e6f74206265747765656e20353020616e64203135300000000000000081525060400191505060405180910390fd5b8f6000806101000a81548173ffffffffffffffffffffffffffffffffffffffff021916908373ffffffffffffffffffffffffffffffffffffffff1602179055508e600260006101000a81548173ffffffffffffffffffffffffffffffffffffffff021916908373ffffffffffffffffffffffffffffffffffffffff1602179055508d600360006101000a81548173ffffffffffffffffffffffffffffffffffffffff021916908373ffffffffffffffffffffffffffffffffffffffff1602179055508c600460006101000a81548173ffffffffffffffffffffffffffffffffffffffff021916908373ffffffffffffffffffffffffffffffffffffffff1602179055508b600981600019169055508a60068190555089600781905550846025819055508760268190555088602781905550856028819055508660298190555081600e8190555080600f8190555083600b8190555082600c819055505050505050505050505050505050505062000678565b60007ffffffffffffffffffffffffffffffffffffffffffffffffffffffffbcf1dcc0083138015620006335750640430e2340083125b80156200067057507ffffffffffffffffffffffffffffffffffffffffffffffffffffffffe050e46d2821380156200066f57506401faf1b92e82125b5b905092915050565b612ec180620006886000396000f300608060405260043610610251576000357c0100000000000000000000000000000000000000000000000000000000900463ffffffff1680630c665c67146102e55780630f9666f81461031457806319e42dab1461033f57806324500bf71461036a5780632ca15122146103955780632de849cc1461039f57806330b9ca35146103ca57806337a3ee07146103f557806339f4493e1461042057806341e60c861461044b578063463384bb146104625780634d6dd0fe1461049957806350a7f7d3146104c857806354fd4d501461051f57806355dee5ff1461055257806356f2876f1461057d578063572940ab146105a85780635f5b5d65146105bf578063606eea9f146105f657806367e404ce146106215780636c1dc822146106785780637361c0be146106a357806376c2224a146106ce578063774c0b0e146106f957806385797c7c14610724578063880778b91461074f5780638da5cb5b1461077a5780638e994775146107d15780639455edd8146107fc578063957e09bd14610827578063b8c9272214610852578063bbdfbfba14610881578063bda8da6e14610898578063c85146bc146108c3578063cbec74ca146108ee578063d16a533514610919578063d5cabfa71461094c578063de64cbac14610977578063e1302000146109a2578063e1e5b1ee146109cd578063e2c1772d146109e4578063f257a93314610a0f578063f2fde38b14610a3a578063f55f5e6914610a7d578063f5b6594514610aa8578063f7260d3e14610adb578063f7736c2214610b32578063fa2af9da14610b5d578063fd9b43bc14610bb4575b6040517f08c379a00000000000000000000000000000000000000000000000000000000081526004018080602001828103825260218152602001807f52656a6563746564206279207468652072656a6563746f7220636f6e7472616381526020017f740000000000000000000000000000000000000000000000000000000000000081525060400191505060405180910390fd5b3480156102f157600080fd5b506102fa610bdf565b604051808215151515815260200191505060405180910390f35b34801561032057600080fd5b50610329610bf2565b6040518082815260200191505060405180910390f35b34801561034b57600080fd5b50610354610bf8565b6040518082815260200191505060405180910390f35b34801561037657600080fd5b5061037f610bfe565b6040518082815260200191505060405180910390f35b61039d610c04565b005b3480156103ab57600080fd5b506103b4611001565b6040518082815260200191505060405180910390f35b3480156103d657600080fd5b506103df611007565b6040518082815260200191505060405180910390f35b34801561040157600080fd5b5061040a61100d565b6040518082815260200191505060405180910390f35b34801561042c57600080fd5b50610435611013565b6040518082815260200191505060405180910390f35b34801561045757600080fd5b50610460611019565b005b34801561046e57600080fd5b5061049760048036038101908080359060200190929190803590602001909291905050506114bc565b005b3480156104a557600080fd5b506104ae611a36565b604051808215151515815260200191505060405180910390f35b3480156104d457600080fd5b506104dd611a49565b604051808273ffffffffffffffffffffffffffffffffffffffff1673ffffffffffffffffffffffffffffffffffffffff16815260200191505060405180910390f35b34801561052b57600080fd5b50610534611a6f565b60405180826000191660001916815260200191505060405180910390f35b34801561055e57600080fd5b50610567611a75565b6040518082815260200191505060405180910390f35b34801561058957600080fd5b50610592611a7b565b6040518082815260200191505060405180910390f35b3480156105b457600080fd5b506105bd611a81565b005b3480156105cb57600080fd5b506105f46004803603810190808035906020019092919080359060200190929190505050611ea5565b005b34801561060257600080fd5b5061060b612445565b6040518082815260200191505060405180910390f35b34801561062d57600080fd5b5061063661244b565b604051808273ffffffffffffffffffffffffffffffffffffffff1673ffffffffffffffffffffffffffffffffffffffff16815260200191505060405180910390f35b34801561068457600080fd5b5061068d612471565b6040518082815260200191505060405180910390f35b3480156106af57600080fd5b506106b8612477565b6040518082815260200191505060405180910390f35b3480156106da57600080fd5b506106e361247d565b6040518082815260200191505060405180910390f35b34801561070557600080fd5b5061070e612483565b6040518082815260200191505060405180910390f35b34801561073057600080fd5b50610739612489565b6040518082815260200191505060405180910390f35b34801561075b57600080fd5b5061076461248f565b6040518082815260200191505060405180910390f35b34801561078657600080fd5b5061078f612495565b604051808273ffffffffffffffffffffffffffffffffffffffff1673ffffffffffffffffffffffffffffffffffffffff16815260200191505060405180910390f35b3480156107dd57600080fd5b506107e66124ba565b6040518082815260200191505060405180910390f35b34801561080857600080fd5b506108116124c0565b6040518082815260200191505060405180910390f35b34801561083357600080fd5b5061083c6124c6565b6040518082815260200191505060405180910390f35b34801561085e57600080fd5b506108676124cc565b604051808215151515815260200191505060405180910390f35b34801561088d57600080fd5b506108966124df565b005b3480156108a457600080fd5b506108ad612914565b6040518082815260200191505060405180910390f35b3480156108cf57600080fd5b506108d861291a565b6040518082815260200191505060405180910390f35b3480156108fa57600080fd5b50610903612920565b6040518082815260200191505060405180910390f35b34801561092557600080fd5b5061092e612926565b60405180826000191660001916815260200191505060405180910390f35b34801561095857600080fd5b5061096161292c565b6040518082815260200191505060405180910390f35b34801561098357600080fd5b5061098c612932565b6040518082815260200191505060405180910390f35b3480156109ae57600080fd5b506109b7612938565b6040518082815260200191505060405180910390f35b3480156109d957600080fd5b506109e261293e565b005b3480156109f057600080fd5b506109f9612c12565b6040518082815260200191505060405180910390f35b348015610a1b57600080fd5b50610a24612c18565b6040518082815260200191505060405180910390f35b348015610a4657600080fd5b50610a7b600480360381019080803573ffffffffffffffffffffffffffffffffffffffff169060200190929190505050612c1e565b005b348015610a8957600080fd5b50610a92612d73565b6040518082815260200191505060405180910390f35b348015610ab457600080fd5b50610abd612d79565b60405180826000191660001916815260200191505060405180910390f35b348015610ae757600080fd5b50610af0612d7f565b604051808273ffffffffffffffffffffffffffffffffffffffff1673ffffffffffffffffffffffffffffffffffffffff16815260200191505060405180910390f35b348015610b3e57600080fd5b50610b47612da5565b6040518082815260200191505060405180910390f35b348015610b6957600080fd5b50610b72612dab565b604051808273ffffffffffffffffffffffffffffffffffffffff1673ffffffffffffffffffffffffffffffffffffffff16815260200191505060405180910390f35b348015610bc057600080fd5b50610bc9612dd1565b6040518082815260200191505060405180910390f35b601060009054906101000a900460ff1681565b60205481565b60115481565b60265481565b600360009054906101000a900473ffffffffffffffffffffffffffffffffffffffff1673ffffffffffffffffffffffffffffffffffffffff163373ffffffffffffffffffffffffffffffffffffffff161480610cad5750600460009054906101000a900473ffffffffffffffffffffffffffffffffffffffff1673ffffffffffffffffffffffffffffffffffffffff163373ffffffffffffffffffffffffffffffffffffffff16145b80610d055750600260009054906101000a900473ffffffffffffffffffffffffffffffffffffffff1673ffffffffffffffffffffffffffffffffffffffff163373ffffffffffffffffffffffffffffffffffffffff16145b1515610d79576040517f08c379a00000000000000000000000000000000000000000000000000000000081526004018080602001828103825260188152602001807f4f6e6c79207061727469636970616e7420616c6c6f776564000000000000000081525060200191505060405180910390fd5b3373ffffffffffffffffffffffffffffffffffffffff16600260009054906101000a900473ffffffffffffffffffffffffffffffffffffffff1673ffffffffffffffffffffffffffffffffffffffff16148015610de35750601060009054906101000a900460ff16155b15610edb576007546006540134141515610eb1576040517f08c379a00000000000000000000000000000000000000000000000000000000081526004018080602001828103825260538152602001807f5768656e207369676e696e672061732073656e64657220746865206d73672e7681526020017f616c7565206d75737420626520657175616c7320746865207472616e73706f7281526020017f7420616e6420706c617466726f6d20636f73740000000000000000000000000081525060600191505060405180910390fd5b6001601060006101000a81548160ff02191690831515021790555042601181905550346008819055505b3373ffffffffffffffffffffffffffffffffffffffff16600360009054906101000a900473ffffffffffffffffffffffffffffffffffffffff1673ffffffffffffffffffffffffffffffffffffffff16148015610f455750601260009054906101000a900460ff16155b15610f6d576001601260006101000a81548160ff021916908315150217905550426013819055505b3373ffffffffffffffffffffffffffffffffffffffff16600460009054906101000a900473ffffffffffffffffffffffffffffffffffffffff1673ffffffffffffffffffffffffffffffffffffffff16148015610fd75750601460009054906101000a900460ff16155b15610fff576001601460006101000a81548160ff021916908315150217905550426015819055505b565b60245481565b60175481565b60195481565b601a5481565b600360009054906101000a900473ffffffffffffffffffffffffffffffffffffffff1673ffffffffffffffffffffffffffffffffffffffff163373ffffffffffffffffffffffffffffffffffffffff1614806110c25750600460009054906101000a900473ffffffffffffffffffffffffffffffffffffffff1673ffffffffffffffffffffffffffffffffffffffff163373ffffffffffffffffffffffffffffffffffffffff16145b8061111a5750600260009054906101000a900473ffffffffffffffffffffffffffffffffffffffff1673ffffffffffffffffffffffffffffffffffffffff163373ffffffffffffffffffffffffffffffffffffffff16145b151561118e576040517f08c379a00000000000000000000000000000000000000000000000000000000081526004018080602001828103825260188152602001807f4f6e6c79207061727469636970616e7420616c6c6f776564000000000000000081525060200191505060405180910390fd5b6000601654141515611208576040517f08c379a000000000000000000000000000000000000000000000000000000000815260040180806020018281038252601c8152602001807f7061636b61676520697320616c7265616479207069636b65642075700000000081525060200191505060405180910390fd5b600e544210806112195750600f5442115b151561128d576040517f08c379a000000000000000000000000000000000000000000000000000000000815260040180806020018281038252601c8152602001807f43616e6e6f7420756e73696e6720696e207069636b75702074696d650000000081525060200191505060405180910390fd5b3373ffffffffffffffffffffffffffffffffffffffff16600260009054906101000a900473ffffffffffffffffffffffffffffffffffffffff1673ffffffffffffffffffffffffffffffffffffffff161480156112f65750601060009054906101000a900460ff165b1561139657600260009054906101000a900473ffffffffffffffffffffffffffffffffffffffff1673ffffffffffffffffffffffffffffffffffffffff166108fc600754600654019081150290604051600060405180830381858888f19350505050158015611369573d6000803e3d6000fd5b506000601060006101000a81548160ff021916908315150217905550600060118190555060006008819055505b3373ffffffffffffffffffffffffffffffffffffffff16600360009054906101000a900473ffffffffffffffffffffffffffffffffffffffff1673ffffffffffffffffffffffffffffffffffffffff161480156113ff5750601260009054906101000a900460ff165b15611428576000601260006101000a81548160ff02191690831515021790555060006013819055505b3373ffffffffffffffffffffffffffffffffffffffff16600460009054906101000a900473ffffffffffffffffffffffffffffffffffffffff1673ffffffffffffffffffffffffffffffffffffffff161480156114915750601460009054906101000a900460ff165b156114ba576000601460006101000a81548160ff02191690831515021790555060006015819055505b565b600360009054906101000a900473ffffffffffffffffffffffffffffffffffffffff1673ffffffffffffffffffffffffffffffffffffffff163373ffffffffffffffffffffffffffffffffffffffff1614806115655750600260009054906101000a900473ffffffffffffffffffffffffffffffffffffffff1673ffffffffffffffffffffffffffffffffffffffff163373ffffffffffffffffffffffffffffffffffffffff16145b15156115d9576040517f08c379a000000000000000000000000000000000000000000000000000000000815260040180806020018281038252601f8152602001807f6f6e6c792073656e646572206f7220636f757269657220616c6c6f776564210081525060200191505060405180910390fd5b601060009054906101000a900460ff16151561165d576040517f08c379a000000000000000000000000000000000000000000000000000000000815260040180806020018281038252601f8152602001807f53656e64657220686173206e6f74207369676e656420636f6e7472616374210081525060200191505060405180910390fd5b601260009054906101000a900460ff1615156116e1576040517f08c379a00000000000000000000000000000000000000000000000000000000081526004018080602001828103825260208152602001807f436f757269657220686173206e6f74207369676e656420636f6e74726163742181525060200191505060405180910390fd5b601460009054906101000a900460ff161515611765576040517f08c379a00000000000000000000000000000000000000000000000000000000081526004018080602001828103825260208152602001807f526563656976657220686173206e6f74207369676e656420636f6e747261637481525060200191505060405180910390fd5b61176f8282612dd7565b1515611809576040517f08c379a00000000000000000000000000000000000000000000000000000000081526004018080602001828103825260398152602001807f496e76616c6964206c6f6e676974756465206f72206c6174697475646520666f81526020017f72207265616479466f725069636b75702066756e6374696f6e0000000000000081525060400191505060405180910390fd5b61181560295483612e4f565b15156118af576040517f08c379a00000000000000000000000000000000000000000000000000000000081526004018080602001828103825260258152602001807f4c6f6e67697475646520697320746f206661722066726f6d207069636b75702081526020017f706f696e7400000000000000000000000000000000000000000000000000000081525060400191505060405180910390fd5b6118bb60285482612e4f565b1515611955576040517f08c379a00000000000000000000000000000000000000000000000000000000081526004018080602001828103825260248152602001807f4c6174697475646520697320746f206661722066726f6d207069636b7570207081526020017f6f696e740000000000000000000000000000000000000000000000000000000081525060400191505060405180910390fd5b3373ffffffffffffffffffffffffffffffffffffffff16600260009054906101000a900473ffffffffffffffffffffffffffffffffffffffff1673ffffffffffffffffffffffffffffffffffffffff1614156119c5574260198190555081601a8190555080601b81905550611a32565b3373ffffffffffffffffffffffffffffffffffffffff16600360009054906101000a900473ffffffffffffffffffffffffffffffffffffffff1673ffffffffffffffffffffffffffffffffffffffff161415611a315742601c8190555081601d8190555080601e819055505b5b5050565b601460009054906101000a900460ff1681565b600360009054906101000a900473ffffffffffffffffffffffffffffffffffffffff1681565b60015481565b60185481565b60165481565b600260009054906101000a900473ffffffffffffffffffffffffffffffffffffffff1673ffffffffffffffffffffffffffffffffffffffff163373ffffffffffffffffffffffffffffffffffffffff16141515611b46576040517f08c379a00000000000000000000000000000000000000000000000000000000081526004018080602001828103825260148152602001807f6f6e6c792073656e64657220616c6c6f7765642100000000000000000000000081525060200191505060405180910390fd5b601060009054906101000a900460ff161515611bca576040517f08c379a000000000000000000000000000000000000000000000000000000000815260040180806020018281038252601f8152602001807f53656e64657220686173206e6f74207369676e656420636f6e7472616374210081525060200191505060405180910390fd5b601260009054906101000a900460ff161515611c4e576040517f08c379a00000000000000000000000000000000000000000000000000000000081526004018080602001828103825260208152602001807f436f757269657220686173206e6f74207369676e656420636f6e74726163742181525060200191505060405180910390fd5b601460009054906101000a900460ff161515611cd2576040517f08c379a00000000000000000000000000000000000000000000000000000000081526004018080602001828103825260208152602001807f526563656976657220686173206e6f74207369676e656420636f6e747261637481525060200191505060405180910390fd5b6000601754141515611d4c576040517f08c379a00000000000000000000000000000000000000000000000000000000081526004018080602001828103825260148152602001807f43616e6e6f742062652064656c6976657265642e00000000000000000000000081525060200191505060405180910390fd5b6000601654111515611dc6576040517f08c379a00000000000000000000000000000000000000000000000000000000081526004018080602001828103825260198152602001807f50617263656c20776173206e6f74207069636b65642075702e0000000000000081525060200191505060405180910390fd5b42601881905550600260009054906101000a900473ffffffffffffffffffffffffffffffffffffffff1673ffffffffffffffffffffffffffffffffffffffff166108fc6006549081150290604051600060405180830381858888f19350505050158015611e37573d6000803e3d6000fd5b50600560009054906101000a900473ffffffffffffffffffffffffffffffffffffffff1673ffffffffffffffffffffffffffffffffffffffff166108fc6007549081150290604051600060405180830381858888f19350505050158015611ea2573d6000803e3d6000fd5b50565b600460009054906101000a900473ffffffffffffffffffffffffffffffffffffffff1673ffffffffffffffffffffffffffffffffffffffff163373ffffffffffffffffffffffffffffffffffffffff161480611f4e5750600260009054906101000a900473ffffffffffffffffffffffffffffffffffffffff1673ffffffffffffffffffffffffffffffffffffffff163373ffffffffffffffffffffffffffffffffffffffff16145b1515611fe8576040517f08c379a00000000000000000000000000000000000000000000000000000000081526004018080602001828103825260218152602001807f6f6e6c79207265636569766572206f7220636f757269657220616c6c6f77656481526020017f210000000000000000000000000000000000000000000000000000000000000081525060400191505060405180910390fd5b601060009054906101000a900460ff16151561206c576040517f08c379a000000000000000000000000000000000000000000000000000000000815260040180806020018281038252601f8152602001807f53656e64657220686173206e6f74207369676e656420636f6e7472616374210081525060200191505060405180910390fd5b601260009054906101000a900460ff1615156120f0576040517f08c379a00000000000000000000000000000000000000000000000000000000081526004018080602001828103825260208152602001807f436f757269657220686173206e6f74207369676e656420636f6e74726163742181525060200191505060405180910390fd5b601460009054906101000a900460ff161515612174576040517f08c379a00000000000000000000000000000000000000000000000000000000081526004018080602001828103825260208152602001807f526563656976657220686173206e6f74207369676e656420636f6e747261637481525060200191505060405180910390fd5b61217e8282612dd7565b1515612218576040517f08c379a000000000000000000000000000000000000000000000000000000000815260040180806020018281038252603b8152602001807f496e76616c6964206c6f6e676974756465206f72206c6174697475646520666f81526020017f72207265616479466f7244656c69766572792066756e6374696f6e000000000081525060400191505060405180910390fd5b61222460275483612e4f565b15156122be576040517f08c379a00000000000000000000000000000000000000000000000000000000081526004018080602001828103825260278152602001807f4c6f6e67697475646520697320746f206661722066726f6d2064656c6976657281526020017f7920706f696e740000000000000000000000000000000000000000000000000081525060400191505060405180910390fd5b6122ca60265482612e4f565b1515612364576040517f08c379a00000000000000000000000000000000000000000000000000000000081526004018080602001828103825260268152602001807f4c6174697475646520697320746f206661722066726f6d2064656c697665727981526020017f20706f696e74000000000000000000000000000000000000000000000000000081525060400191505060405180910390fd5b3373ffffffffffffffffffffffffffffffffffffffff16600460009054906101000a900473ffffffffffffffffffffffffffffffffffffffff1673ffffffffffffffffffffffffffffffffffffffff1614156123d45742601f819055508160208190555080602181905550612441565b3373ffffffffffffffffffffffffffffffffffffffff16600360009054906101000a900473ffffffffffffffffffffffffffffffffffffffff1673ffffffffffffffffffffffffffffffffffffffff161415612440574260228190555081602381905550806024819055505b5b5050565b60235481565b600260009054906101000a900473ffffffffffffffffffffffffffffffffffffffff1681565b60065481565b60255481565b60155481565b601f5481565b60215481565b60135481565b6000809054906101000a900473ffffffffffffffffffffffffffffffffffffffff1681565b600b5481565b60295481565b60275481565b601260009054906101000a900460ff1681565b600460009054906101000a900473ffffffffffffffffffffffffffffffffffffffff1673ffffffffffffffffffffffffffffffffffffffff163373ffffffffffffffffffffffffffffffffffffffff161415156125a4576040517f08c379a00000000000000000000000000000000000000000000000000000000081526004018080602001828103825260168152602001807f6f6e6c7920726563696576657220616c6c6f776564210000000000000000000081525060200191505060405180910390fd5b601060009054906101000a900460ff161515612628576040517f08c379a000000000000000000000000000000000000000000000000000000000815260040180806020018281038252601f8152602001807f53656e64657220686173206e6f74207369676e656420636f6e7472616374210081525060200191505060405180910390fd5b601260009054906101000a900460ff1615156126ac576040517f08c379a00000000000000000000000000000000000000000000000000000000081526004018080602001828103825260208152602001807f436f757269657220686173206e6f74207369676e656420636f6e74726163742181525060200191505060405180910390fd5b601460009054906101000a900460ff161515612730576040517f08c379a00000000000000000000000000000000000000000000000000000000081526004018080602001828103825260208152602001807f526563656976657220686173206e6f74207369676e656420636f6e747261637481525060200191505060405180910390fd5b60006017541415156127aa576040517f08c379a00000000000000000000000000000000000000000000000000000000081526004018080602001828103825260158152602001807f43616e6e6f742064656c697665722074776963652e000000000000000000000081525060200191505060405180910390fd5b6000601654111515612824576040517f08c379a00000000000000000000000000000000000000000000000000000000081526004018080602001828103825260198152602001807f50617263656c20776173206e6f74207069636b65642075702e0000000000000081525060200191505060405180910390fd5b42601781905550600c544211151561283b5761283c565b5b600360009054906101000a900473ffffffffffffffffffffffffffffffffffffffff1673ffffffffffffffffffffffffffffffffffffffff166108fc6006549081150290604051600060405180830381858888f193505050501580156128a6573d6000803e3d6000fd5b50600560009054906101000a900473ffffffffffffffffffffffffffffffffffffffff1673ffffffffffffffffffffffffffffffffffffffff166108fc6007549081150290604051600060405180830381858888f19350505050158015612911573d6000803e3d6000fd5b50565b60225481565b601b5481565b60075481565b600d5481565b601d5481565b600c5481565b60285481565b600360009054906101000a900473ffffffffffffffffffffffffffffffffffffffff1673ffffffffffffffffffffffffffffffffffffffff163373ffffffffffffffffffffffffffffffffffffffff16141515612a03576040517f08c379a00000000000000000000000000000000000000000000000000000000081526004018080602001828103825260158152602001807f6f6e6c7920636f757269657220616c6c6f77656421000000000000000000000081525060200191505060405180910390fd5b601060009054906101000a900460ff161515612a87576040517f08c379a000000000000000000000000000000000000000000000000000000000815260040180806020018281038252601f8152602001807f53656e64657220686173206e6f74207369676e656420636f6e7472616374210081525060200191505060405180910390fd5b601260009054906101000a900460ff161515612b0b576040517f08c379a00000000000000000000000000000000000000000000000000000000081526004018080602001828103825260208152602001807f436f757269657220686173206e6f74207369676e656420636f6e74726163742181525060200191505060405180910390fd5b601460009054906101000a900460ff161515612b8f576040517f08c379a00000000000000000000000000000000000000000000000000000000081526004018080602001828103825260208152602001807f526563656976657220686173206e6f74207369676e656420636f6e747261637481525060200191505060405180910390fd5b6000601654141515612c09576040517f08c379a00000000000000000000000000000000000000000000000000000000081526004018080602001828103825260138152602001807f43616e6e6f74207069636b75702074776963650000000000000000000000000081525060200191505060405180910390fd5b42601681905550565b601c5481565b601e5481565b6000809054906101000a900473ffffffffffffffffffffffffffffffffffffffff1673ffffffffffffffffffffffffffffffffffffffff163373ffffffffffffffffffffffffffffffffffffffff16141515612c7957600080fd5b600073ffffffffffffffffffffffffffffffffffffffff168173ffffffffffffffffffffffffffffffffffffffff1614151515612cb557600080fd5b8073ffffffffffffffffffffffffffffffffffffffff166000809054906101000a900473ffffffffffffffffffffffffffffffffffffffff1673ffffffffffffffffffffffffffffffffffffffff167f8be0079c531659141344cd1fd0a4f28419497f9722a3daafe3b4186f6b6457e060405160405180910390a3806000806101000a81548173ffffffffffffffffffffffffffffffffffffffff021916908373ffffffffffffffffffffffffffffffffffffffff16021790555050565b600f5481565b60095481565b600460009054906101000a900473ffffffffffffffffffffffffffffffffffffffff1681565b600e5481565b600560009054906101000a900473ffffffffffffffffffffffffffffffffffffffff1681565b60085481565b60007ffffffffffffffffffffffffffffffffffffffffffffffffffffffffbcf1dcc0083138015612e0c5750640430e2340083125b8015612e4757507ffffffffffffffffffffffffffffffffffffffffffffffffffffffffe050e46d282138015612e4657506401faf1b92e82125b5b905092915050565b60008082840390506000811215612e86577fffffffffffffffffffffffffffffffffffffffffffffffffffffffffffffffff810290505b602554811315915050929150505600a165627a7a723058209143874d744271756329bfc88294c6d2ab7836327ca80659e15d1d0375b088130029",
  "source": "pragma solidity ^0.4.24;\r\n\r\nimport \"./Ownable.sol\";\r\nimport \"./Rejector.sol\";\r\n\r\ncontract ParcelContract is Ownable, Rejector {\r\n    \r\n    bytes32 public version = \"1.0\";\r\n    address public sender;\r\n    address public courier;\r\n    address public receiver;\r\n    address public platformWallet = address(0xdD870fA1b7C4700F2BD7f44238821C26f7392148);\r\n    \r\n    uint256 public transportCost = 0;\r\n    uint256 public platformCost = 0;\r\n    uint256 public weiLockedBySender = 0;\r\n    \r\n    // parcel data\r\n    bytes32 public parcelHash; \r\n    \r\n    // delivery data\r\n    bytes32 publicdeliveryAddress;\r\n    uint256 public deliveryStart = 0;\r\n    uint256 public deliveryEnd = 0;\r\n    \r\n    // pickup data\r\n    bytes32 public pickupAddress;\r\n    uint256 public pickupStart = 0;\r\n    uint256 public pickupEnd = 0;\r\n    \r\n    bool public senderSigned  = false;\r\n    uint256 public senderSignedTimeStamp = 0;\r\n    \r\n    bool public courierSigned  = false;\r\n    uint256 public courierSignedTimeStamp = 0;\r\n    \r\n    bool public receiverSigned = false;\r\n    uint256 public receiverSignedTimeStamp = 0;\r\n    \r\n    uint256 public pickupTimeStamp = 0; \r\n    uint256 public deliveredTimeStamp = 0;\r\n    uint public deliveredToSenderTimeStamp = 0;\r\n    \r\n    uint256 public readyForPickupTimeStampSender = 0;\r\n    int public readyForPickupLongitudeSender = 0;\r\n    int public readyForPickupLatitudeSender = 0;\r\n    \r\n    uint256 public readyForPickupTimeStampCourier = 0;\r\n    int public readyForPickupLongitudeCourier = 0;\r\n    int public readyForPickupLatitudeCourier = 0;\r\n    \r\n    uint256 public readyForDeliveryTimeStampReceiver = 0;\r\n    int public readyForDeliveryLongitudeReceiver = 0;\r\n    int public readyForDeliveryLatitudeReceiver = 0;\r\n    \r\n    uint256 public readyForDeliveryTimeStampCourier = 0;\r\n    int public readyForDeliveryLongitudeCourier = 0;\r\n    int public readyForDeliveryLatitudeCourier = 0;\r\n    \r\n    int public accuracyDeliveryAndPickup = 0;\r\n    int public deliveryLatitude = 0;\r\n    int public deliveryLongitude = 0;\r\n    int public pickupLatitude = 0;\r\n    int public pickupLongitude = 0;\r\n    \r\n    constructor\r\n    (\r\n        address _owner, \r\n        address _sender, \r\n        address _courier, \r\n        address _receiver,  \r\n        bytes32 _parcelHash, \r\n        uint256 _transportCost, \r\n        uint256 _platformCost, \r\n        int _deliveryLongitude, \r\n        int _deliveryLatitude, \r\n        int _pickupLongitude, \r\n        int _pickupLatitude, \r\n        int _accuracyDeliveryAndPickup, \r\n        uint256 _deliveryStart, \r\n        uint256 _deliveryEnd, \r\n        uint256 _pickupStart, \r\n        uint256 _pickupEnd\r\n    ) public {\r\n        require(isValidLongitudeAndLatitude(_deliveryLongitude, _deliveryLatitude), \"Invalid delivery longitude or latitude\");\r\n        require(isValidLongitudeAndLatitude(_pickupLongitude, _pickupLatitude), \"Invalid pickup longitude or latitude\");\r\n        require(_accuracyDeliveryAndPickup >= 50 && _accuracyDeliveryAndPickup <= 150, \"accuracy of delivery and pickup is not between 50 and 150\");\r\n        \r\n        owner = _owner;\r\n        sender = _sender;\r\n        courier = _courier;\r\n        receiver = _receiver;\r\n        \r\n        parcelHash = _parcelHash;\r\n        \r\n        transportCost = _transportCost;\r\n        platformCost = _platformCost;\r\n        \r\n        accuracyDeliveryAndPickup = _accuracyDeliveryAndPickup;\r\n        deliveryLatitude = _deliveryLatitude;\r\n        deliveryLongitude = _deliveryLongitude;\r\n        pickupLatitude = _pickupLatitude;\r\n        pickupLongitude = _pickupLongitude;\r\n        \r\n        pickupStart = _pickupStart;\r\n        pickupEnd = _pickupEnd;\r\n        deliveryStart = _deliveryStart;\r\n        deliveryEnd = _deliveryEnd;\r\n    }\r\n    \r\n    function sign() public payable onlyParticipant {\r\n        if(sender == msg.sender && !senderSigned)\r\n        {\r\n            require(msg.value == (transportCost + platformCost), \"When signing as sender the msg.value must be equals the transport and platfrom cost\");\r\n            senderSigned = true;\r\n            senderSignedTimeStamp = now;\r\n            \r\n            weiLockedBySender = msg.value;\r\n        }\r\n        if(courier == msg.sender && !courierSigned)\r\n        {\r\n            courierSigned = true;\r\n            courierSignedTimeStamp = now;    \r\n        }\r\n        if(receiver == msg.sender && !receiverSigned)\r\n        {\r\n            receiverSigned = true;\r\n            receiverSignedTimeStamp = now;    \r\n        }\r\n    }\r\n    \r\n    function unsign() public onlyParticipant {\r\n        require(pickupTimeStamp == 0, \"package is already picked up\");\r\n        require(now < pickupStart  || now > pickupEnd, \"Cannot unsing in pickup time\");\r\n        \r\n        \r\n        if(sender == msg.sender && senderSigned)\r\n        {\r\n            sender.transfer(transportCost + platformCost);\r\n            senderSigned = false;\r\n            senderSignedTimeStamp = 0;\r\n            \r\n            weiLockedBySender = 0;\r\n        }\r\n        if(courier == msg.sender && courierSigned)\r\n        {\r\n            courierSigned = false;\r\n            courierSignedTimeStamp = 0;    \r\n        }\r\n        if(receiver == msg.sender && receiverSigned)\r\n        {\r\n            receiverSigned = false;\r\n            receiverSignedTimeStamp = 0;    \r\n        }\r\n    }\r\n    \r\n    function pickup() public onlyCourier onlySignedContract {\r\n        require(pickupTimeStamp == 0, \"Cannot pickup twice\");\r\n        pickupTimeStamp = now;\r\n    }\r\n    \r\n    function delivered() public onlyReceiver onlySignedContract {\r\n        require(deliveredTimeStamp == 0, \"Cannot deliver twice.\");\r\n        require (pickupTimeStamp > 0, \"Parcel was not picked up.\");\r\n        deliveredTimeStamp = now;\r\n        \r\n        if(now <= deliveryEnd) {\r\n            // add reward to transport transportcost\r\n        }\r\n        else {\r\n            // return reward to sender\r\n        }\r\n        courier.transfer(transportCost);\r\n        platformWallet.transfer(platformCost);\r\n    }\r\n    \r\n    function deliverdToSender() public onlySender onlySignedContract {\r\n        require(deliveredTimeStamp == 0, \"Cannot be delivered.\");\r\n        require (pickupTimeStamp > 0, \"Parcel was not picked up.\");\r\n        deliveredToSenderTimeStamp = now;\r\n        \r\n        sender.transfer(transportCost);\r\n        platformWallet.transfer(platformCost);\r\n    }\r\n    \r\n    function readyForPickup(int longitude, int latidude) public onlyCourierOrSender onlySignedContract {\r\n        require(isValidLongitudeAndLatitude(longitude, latidude), \"Invalid longitude or latitude for readyForPickup function\");\r\n        require(nearbyPickupOrdDelivery(pickupLongitude, longitude), \"Longitude is to far from pickup point\");\r\n        require(nearbyPickupOrdDelivery(pickupLatitude, latidude), \"Latitude is to far from pickup point\");\r\n        \r\n        if(sender == msg.sender)\r\n        {\r\n            readyForPickupTimeStampSender = now;\r\n            readyForPickupLongitudeSender = longitude;\r\n            readyForPickupLatitudeSender = latidude;\r\n        }\r\n        else if(courier == msg.sender)\r\n        {\r\n            readyForPickupTimeStampCourier = now;\r\n            readyForPickupLongitudeCourier = longitude;\r\n            readyForPickupLatitudeCourier  = latidude;\r\n        }\r\n    }\r\n    \r\n    function readyForDelivery(int longitude, int latidude) public onlyCourierOrReceiver onlySignedContract {\r\n        require(isValidLongitudeAndLatitude(longitude, latidude), \"Invalid longitude or latitude for readyForDelivery function\");\r\n        require(nearbyPickupOrdDelivery(deliveryLongitude, longitude), \"Longitude is to far from delivery point\");\r\n        require(nearbyPickupOrdDelivery(deliveryLatitude, latidude), \"Latitude is to far from delivery point\");\r\n        \r\n        if(receiver == msg.sender)\r\n        {\r\n            readyForDeliveryTimeStampReceiver = now;\r\n            readyForDeliveryLongitudeReceiver = longitude;\r\n            readyForDeliveryLatitudeReceiver = latidude;\r\n        }\r\n        else if(courier == msg.sender)\r\n        {\r\n            readyForDeliveryTimeStampCourier = now;\r\n            readyForDeliveryLongitudeCourier = longitude;\r\n            readyForDeliveryLatitudeCourier  = latidude;\r\n        }\r\n    }\r\n    \r\n    function nearbyPickupOrdDelivery(int pointA, int pointB) private view returns (bool) {\r\n        int result = pointA - pointB;\r\n        if(result < 0)\r\n            result = result * -1;\r\n            \r\n        return result <= accuracyDeliveryAndPickup;\r\n    }\r\n    \r\n    function isValidLongitudeAndLatitude(int256 longitude, int256 latitude) private pure returns (bool) {\r\n        return ((longitude > -18000000000 && longitude < 18000000000) && (latitude > -8505112878 && latitude < 8505112878));\r\n    }\r\n    \r\n    modifier onlySender() {\r\n        require (msg.sender == sender, \"only sender allowed!\");\r\n        _;\r\n    }\r\n    \r\n    modifier onlyCourier() {\r\n        require (msg.sender == courier, \"only courier allowed!\");\r\n        _;\r\n    }\r\n    \r\n    modifier onlyReceiver() {\r\n        require (msg.sender == receiver, \"only reciever allowed!\");\r\n        _;\r\n    }\r\n    \r\n    modifier onlyCourierOrSender() {\r\n        require (msg.sender == courier || msg.sender == sender, \"only sender or courier allowed!\");\r\n        _;\r\n    }\r\n    \r\n    modifier onlyCourierOrReceiver() {\r\n        require (msg.sender == receiver || msg.sender == sender, \"only receiver or courier allowed!\");\r\n        _;\r\n    }\r\n    \r\n    modifier onlyParticipant() {\r\n        require (msg.sender == courier || msg.sender == receiver || msg.sender == sender, \"Only participant allowed\");\r\n        _;\r\n    }\r\n    modifier onlySignedContract() {\r\n        require(senderSigned, \"Sender has not signed contract!\");\r\n        require(courierSigned, \"Courier has not signed contract!\");\r\n        require(receiverSigned, \"Receiver has not signed contract\");\r\n        _;\r\n    }\r\n}",
  "sourcePath": "C:\\PROJECTS\\blockchain-secured-parcel-service\\Nodejs\\init\\contracts\\ParcelContract.sol",
  "compiler": {
    "name": "solc",
    "version": "0.4.24+commit.e67f0147.Emscripten.clang"
  },
  "schemaVersion": "2.0.1",
  "updatedAt": "2018-12-20T23:02:24.518Z"
}