{
  "contractName": "ParcelContract",
  "abi": [
    {
      "constant": true,
      "inputs": [],
      "name": "senderSigned",
      "outputs": [
        {
          "name": "",
          "type": "bool"
        }
      ],
      "payable": false,
      "stateMutability": "view",
      "type": "function"
    },
    {
      "constant": true,
      "inputs": [],
      "name": "readyForDeliveryLongitudeReceiver",
      "outputs": [
        {
          "name": "",
          "type": "int256"
        }
      ],
      "payable": false,
      "stateMutability": "view",
      "type": "function"
    },
    {
      "constant": true,
      "inputs": [],
      "name": "senderSignedTimeStamp",
      "outputs": [
        {
          "name": "",
          "type": "uint256"
        }
      ],
      "payable": false,
      "stateMutability": "view",
      "type": "function"
    },
    {
      "constant": true,
      "inputs": [],
      "name": "deliveryLatitude",
      "outputs": [
        {
          "name": "",
          "type": "int256"
        }
      ],
      "payable": false,
      "stateMutability": "view",
      "type": "function"
    },
    {
      "constant": true,
      "inputs": [],
      "name": "readyForDeliveryLatitudeCourier",
      "outputs": [
        {
          "name": "",
          "type": "int256"
        }
      ],
      "payable": false,
      "stateMutability": "view",
      "type": "function"
    },
    {
      "constant": true,
      "inputs": [],
      "name": "deliveredTimeStamp",
      "outputs": [
        {
          "name": "",
          "type": "uint256"
        }
      ],
      "payable": false,
      "stateMutability": "view",
      "type": "function"
    },
    {
      "constant": true,
      "inputs": [],
      "name": "readyForPickupTimeStampSender",
      "outputs": [
        {
          "name": "",
          "type": "uint256"
        }
      ],
      "payable": false,
      "stateMutability": "view",
      "type": "function"
    },
    {
      "constant": true,
      "inputs": [],
      "name": "readyForPickupLongitudeSender",
      "outputs": [
        {
          "name": "",
          "type": "int256"
        }
      ],
      "payable": false,
      "stateMutability": "view",
      "type": "function"
    },
    {
      "constant": true,
      "inputs": [],
      "name": "receiverSigned",
      "outputs": [
        {
          "name": "",
          "type": "bool"
        }
      ],
      "payable": false,
      "stateMutability": "view",
      "type": "function"
    },
    {
      "constant": true,
      "inputs": [],
      "name": "courier",
      "outputs": [
        {
          "name": "",
          "type": "address"
        }
      ],
      "payable": false,
      "stateMutability": "view",
      "type": "function"
    },
    {
      "constant": true,
      "inputs": [],
      "name": "version",
      "outputs": [
        {
          "name": "",
          "type": "bytes32"
        }
      ],
      "payable": false,
      "stateMutability": "view",
      "type": "function"
    },
    {
      "constant": true,
      "inputs": [],
      "name": "deliveredToSenderTimeStamp",
      "outputs": [
        {
          "name": "",
          "type": "uint256"
        }
      ],
      "payable": false,
      "stateMutability": "view",
      "type": "function"
    },
    {
      "constant": true,
      "inputs": [],
      "name": "pickupTimeStamp",
      "outputs": [
        {
          "name": "",
          "type": "uint256"
        }
      ],
      "payable": false,
      "stateMutability": "view",
      "type": "function"
    },
    {
      "constant": true,
      "inputs": [],
      "name": "readyForDeliveryLongitudeCourier",
      "outputs": [
        {
          "name": "",
          "type": "int256"
        }
      ],
      "payable": false,
      "stateMutability": "view",
      "type": "function"
    },
    {
      "constant": true,
      "inputs": [],
      "name": "sender",
      "outputs": [
        {
          "name": "",
          "type": "address"
        }
      ],
      "payable": false,
      "stateMutability": "view",
      "type": "function"
    },
    {
      "constant": true,
      "inputs": [],
      "name": "transportCost",
      "outputs": [
        {
          "name": "",
          "type": "uint256"
        }
      ],
      "payable": false,
      "stateMutability": "view",
      "type": "function"
    },
    {
      "constant": true,
      "inputs": [],
      "name": "accuracyDeliveryAndPickup",
      "outputs": [
        {
          "name": "",
          "type": "int256"
        }
      ],
      "payable": false,
      "stateMutability": "view",
      "type": "function"
    },
    {
      "constant": true,
      "inputs": [],
      "name": "receiverSignedTimeStamp",
      "outputs": [
        {
          "name": "",
          "type": "uint256"
        }
      ],
      "payable": false,
      "stateMutability": "view",
      "type": "function"
    },
    {
      "constant": true,
      "inputs": [],
      "name": "readyForDeliveryTimeStampReceiver",
      "outputs": [
        {
          "name": "",
          "type": "uint256"
        }
      ],
      "payable": false,
      "stateMutability": "view",
      "type": "function"
    },
    {
      "constant": true,
      "inputs": [],
      "name": "readyForDeliveryLatitudeReceiver",
      "outputs": [
        {
          "name": "",
          "type": "int256"
        }
      ],
      "payable": false,
      "stateMutability": "view",
      "type": "function"
    },
    {
      "constant": true,
      "inputs": [],
      "name": "courierSignedTimeStamp",
      "outputs": [
        {
          "name": "",
          "type": "uint256"
        }
      ],
      "payable": false,
      "stateMutability": "view",
      "type": "function"
    },
    {
      "constant": true,
      "inputs": [],
      "name": "owner",
      "outputs": [
        {
          "name": "",
          "type": "address"
        }
      ],
      "payable": false,
      "stateMutability": "view",
      "type": "function"
    },
    {
      "constant": true,
      "inputs": [],
      "name": "deliveryStart",
      "outputs": [
        {
          "name": "",
          "type": "uint256"
        }
      ],
      "payable": false,
      "stateMutability": "view",
      "type": "function"
    },
    {
      "constant": true,
      "inputs": [],
      "name": "pickupLongitude",
      "outputs": [
        {
          "name": "",
          "type": "int256"
        }
      ],
      "payable": false,
      "stateMutability": "view",
      "type": "function"
    },
    {
      "constant": true,
      "inputs": [],
      "name": "deliveryLongitude",
      "outputs": [
        {
          "name": "",
          "type": "int256"
        }
      ],
      "payable": false,
      "stateMutability": "view",
      "type": "function"
    },
    {
      "constant": true,
      "inputs": [],
      "name": "courierSigned",
      "outputs": [
        {
          "name": "",
          "type": "bool"
        }
      ],
      "payable": false,
      "stateMutability": "view",
      "type": "function"
    },
    {
      "constant": true,
      "inputs": [],
      "name": "readyForDeliveryTimeStampCourier",
      "outputs": [
        {
          "name": "",
          "type": "uint256"
        }
      ],
      "payable": false,
      "stateMutability": "view",
      "type": "function"
    },
    {
      "constant": true,
      "inputs": [],
      "name": "deliveryAddress",
      "outputs": [
        {
          "name": "",
          "type": "bytes32"
        }
      ],
      "payable": false,
      "stateMutability": "view",
      "type": "function"
    },
    {
      "constant": true,
      "inputs": [],
      "name": "readyForPickupLatitudeSender",
      "outputs": [
        {
          "name": "",
          "type": "int256"
        }
      ],
      "payable": false,
      "stateMutability": "view",
      "type": "function"
    },
    {
      "constant": true,
      "inputs": [],
      "name": "platformCost",
      "outputs": [
        {
          "name": "",
          "type": "uint256"
        }
      ],
      "payable": false,
      "stateMutability": "view",
      "type": "function"
    },
    {
      "constant": true,
      "inputs": [],
      "name": "pickupAddress",
      "outputs": [
        {
          "name": "",
          "type": "bytes32"
        }
      ],
      "payable": false,
      "stateMutability": "view",
      "type": "function"
    },
    {
      "constant": true,
      "inputs": [],
      "name": "readyForPickupLongitudeCourier",
      "outputs": [
        {
          "name": "",
          "type": "int256"
        }
      ],
      "payable": false,
      "stateMutability": "view",
      "type": "function"
    },
    {
      "constant": true,
      "inputs": [],
      "name": "deliveryEnd",
      "outputs": [
        {
          "name": "",
          "type": "uint256"
        }
      ],
      "payable": false,
      "stateMutability": "view",
      "type": "function"
    },
    {
      "constant": true,
      "inputs": [],
      "name": "pickupLatitude",
      "outputs": [
        {
          "name": "",
          "type": "int256"
        }
      ],
      "payable": false,
      "stateMutability": "view",
      "type": "function"
    },
    {
      "constant": true,
      "inputs": [],
      "name": "readyForPickupTimeStampCourier",
      "outputs": [
        {
          "name": "",
          "type": "uint256"
        }
      ],
      "payable": false,
      "stateMutability": "view",
      "type": "function"
    },
    {
      "constant": true,
      "inputs": [],
      "name": "readyForPickupLatitudeCourier",
      "outputs": [
        {
          "name": "",
          "type": "int256"
        }
      ],
      "payable": false,
      "stateMutability": "view",
      "type": "function"
    },
    {
      "constant": false,
      "inputs": [
        {
          "name": "newOwner",
          "type": "address"
        }
      ],
      "name": "transferOwnership",
      "outputs": [],
      "payable": false,
      "stateMutability": "nonpayable",
      "type": "function"
    },
    {
      "constant": true,
      "inputs": [],
      "name": "pickupEnd",
      "outputs": [
        {
          "name": "",
          "type": "uint256"
        }
      ],
      "payable": false,
      "stateMutability": "view",
      "type": "function"
    },
    {
      "constant": true,
      "inputs": [],
      "name": "parcelHash",
      "outputs": [
        {
          "name": "",
          "type": "bytes32"
        }
      ],
      "payable": false,
      "stateMutability": "view",
      "type": "function"
    },
    {
      "constant": true,
      "inputs": [],
      "name": "receiver",
      "outputs": [
        {
          "name": "",
          "type": "address"
        }
      ],
      "payable": false,
      "stateMutability": "view",
      "type": "function"
    },
    {
      "constant": true,
      "inputs": [],
      "name": "pickupStart",
      "outputs": [
        {
          "name": "",
          "type": "uint256"
        }
      ],
      "payable": false,
      "stateMutability": "view",
      "type": "function"
    },
    {
      "constant": true,
      "inputs": [],
      "name": "platformWallet",
      "outputs": [
        {
          "name": "",
          "type": "address"
        }
      ],
      "payable": false,
      "stateMutability": "view",
      "type": "function"
    },
    {
      "constant": true,
      "inputs": [],
      "name": "weiLockedBySender",
      "outputs": [
        {
          "name": "",
          "type": "uint256"
        }
      ],
      "payable": false,
      "stateMutability": "view",
      "type": "function"
    },
    {
      "inputs": [
        {
          "name": "_owner",
          "type": "address"
        },
        {
          "name": "_sender",
          "type": "address"
        },
        {
          "name": "_courier",
          "type": "address"
        },
        {
          "name": "_receiver",
          "type": "address"
        },
        {
          "name": "_parcelHash",
          "type": "bytes32"
        },
        {
          "name": "_transportCost",
          "type": "uint256"
        },
        {
          "name": "_platformCost",
          "type": "uint256"
        },
        {
          "name": "_deliveryLongitude",
          "type": "int256"
        },
        {
          "name": "_deliveryLatitude",
          "type": "int256"
        },
        {
          "name": "_pickupLongitude",
          "type": "int256"
        },
        {
          "name": "_pickupLatitude",
          "type": "int256"
        },
        {
          "name": "_accuracyDeliveryAndPickup",
          "type": "int256"
        },
        {
          "name": "_deliveryStart",
          "type": "uint256"
        },
        {
          "name": "_deliveryEnd",
          "type": "uint256"
        },
        {
          "name": "_pickupStart",
          "type": "uint256"
        },
        {
          "name": "_pickupEnd",
          "type": "uint256"
        }
      ],
      "payable": false,
      "stateMutability": "nonpayable",
      "type": "constructor"
    },
    {
      "payable": true,
      "stateMutability": "payable",
      "type": "fallback"
    },
    {
      "anonymous": false,
      "inputs": [
        {
          "indexed": true,
          "name": "previousOwner",
          "type": "address"
        },
        {
          "indexed": true,
          "name": "newOwner",
          "type": "address"
        }
      ],
      "name": "OwnershipTransferred",
      "type": "event"
    },
    {
      "constant": false,
      "inputs": [],
      "name": "sign",
      "outputs": [],
      "payable": true,
      "stateMutability": "payable",
      "type": "function"
    },
    {
      "constant": false,
      "inputs": [],
      "name": "unsign",
      "outputs": [],
      "payable": false,
      "stateMutability": "nonpayable",
      "type": "function"
    },
    {
      "constant": false,
      "inputs": [],
      "name": "pickup",
      "outputs": [],
      "payable": false,
      "stateMutability": "nonpayable",
      "type": "function"
    },
    {
      "constant": false,
      "inputs": [],
      "name": "delivered",
      "outputs": [],
      "payable": false,
      "stateMutability": "nonpayable",
      "type": "function"
    },
    {
      "constant": false,
      "inputs": [],
      "name": "deliverdToSender",
      "outputs": [],
      "payable": false,
      "stateMutability": "nonpayable",
      "type": "function"
    },
    {
      "constant": false,
      "inputs": [
        {
          "name": "longitude",
          "type": "int256"
        },
        {
          "name": "latidude",
          "type": "int256"
        }
      ],
      "name": "readyForPickup",
      "outputs": [],
      "payable": false,
      "stateMutability": "nonpayable",
      "type": "function"
    },
    {
      "constant": false,
      "inputs": [
        {
          "name": "longitude",
          "type": "int256"
        },
        {
          "name": "latidude",
          "type": "int256"
        }
      ],
      "name": "readyForDelivery",
      "outputs": [],
      "payable": false,
      "stateMutability": "nonpayable",
      "type": "function"
    },
    {
      "constant": true,
      "inputs": [],
      "name": "readReadyEvents",
      "outputs": [
        {
          "name": "_readyForPickupTimeStampSender",
          "type": "uint256"
        },
        {
          "name": "_readyForPickupLongitudeSender",
          "type": "int256"
        },
        {
          "name": "_readyForPickupLatitudeSender",
          "type": "int256"
        },
        {
          "name": "_readyForPickupTimeStampCourier",
          "type": "uint256"
        },
        {
          "name": "_readyForPickupLongitudeCourier",
          "type": "int256"
        },
        {
          "name": "_readyForPickupLatitudeCourier",
          "type": "int256"
        },
        {
          "name": "_readyForDeliveryTimeStampReceiver",
          "type": "uint256"
        },
        {
          "name": "_readyForDeliveryLongitudeReceiver",
          "type": "int256"
        },
        {
          "name": "_readyForDeliveryLatitudeReceiver",
          "type": "int256"
        },
        {
          "name": "_readyForDeliveryTimeStampCourier",
          "type": "uint256"
        },
        {
          "name": "_readyForDeliveryLongitudeCourier",
          "type": "int256"
        },
        {
          "name": "_readyForDeliveryLatitudeCourier",
          "type": "int256"
        }
      ],
      "payable": false,
      "stateMutability": "view",
      "type": "function"
    },
    {
      "constant": true,
      "inputs": [],
      "name": "readMainEvents",
      "outputs": [
        {
          "name": "_senderSigned",
          "type": "bool"
        },
        {
          "name": "_senderSignedTimeStamp",
          "type": "uint256"
        },
        {
          "name": "_courierSigned",
          "type": "bool"
        },
        {
          "name": "_courierSignedTimeStamp",
          "type": "uint256"
        },
        {
          "name": "_receiverSigned",
          "type": "bool"
        },
        {
          "name": "_receiverSignedTimeStamp",
          "type": "uint256"
        },
        {
          "name": "_pickupTimeStamp",
          "type": "uint256"
        },
        {
          "name": "_deliveredTimeStamp",
          "type": "uint256"
        },
        {
          "name": "_deliveredToSenderTimeStamp",
          "type": "uint256"
        }
      ],
      "payable": false,
      "stateMutability": "view",
      "type": "function"
    },
    {
      "constant": true,
      "inputs": [],
      "name": "readDetails",
      "outputs": [
        {
          "name": "_version",
          "type": "bytes32"
        },
        {
          "name": "_accuracyDeliveryAndPickup",
          "type": "int256"
        },
        {
          "name": "_platformCost",
          "type": "uint256"
        },
        {
          "name": "_sender",
          "type": "address"
        },
        {
          "name": "_courier",
          "type": "address"
        },
        {
          "name": "_receiver",
          "type": "address"
        },
        {
          "name": "_transportCost",
          "type": "uint256"
        },
        {
          "name": "_weiLockedBySender",
          "type": "uint256"
        },
        {
          "name": "_parcelHash",
          "type": "bytes32"
        }
      ],
      "payable": false,
      "stateMutability": "view",
      "type": "function"
    },
    {
      "constant": true,
      "inputs": [],
      "name": "readPickupAndDeliveryDetails",
      "outputs": [
        {
          "name": "_deliveryAddress",
          "type": "bytes32"
        },
        {
          "name": "_deliveryStart",
          "type": "uint256"
        },
        {
          "name": "_deliveryEnd",
          "type": "uint256"
        },
        {
          "name": "_pickupAddress",
          "type": "bytes32"
        },
        {
          "name": "_pickupStart",
          "type": "uint256"
        },
        {
          "name": "_pickupEnd",
          "type": "uint256"
        },
        {
          "name": "_deliveryLatitude",
          "type": "int256"
        },
        {
          "name": "_deliveryLongitude",
          "type": "int256"
        },
        {
          "name": "_pickupLatitude",
          "type": "int256"
        },
        {
          "name": "_pickupLongitude",
          "type": "int256"
        }
      ],
      "payable": false,
      "stateMutability": "view",
      "type": "function"
    }
  ],
  "bytecode": "0x60806040527f312e30000000000000000000000000000000000000000000000000000000000060019060001916905573dd870fa1b7c4700f2bd7f44238821c26f7392148600560006101000a81548173ffffffffffffffffffffffffffffffffffffffff021916908373ffffffffffffffffffffffffffffffffffffffff1602179055506000600655600060075560006008556000600b556000600c556000600e556000600f556000601060006101000a81548160ff02191690831515021790555060006011556000601260006101000a81548160ff02191690831515021790555060006013556000601460006101000a81548160ff021916908315150217905550600060155560006016556000601755600060185560006019556000601a556000601b556000601c556000601d556000601e556000601f5560006020556000602155600060225560006023556000602455600060255560006026556000602755600060285560006029553480156200017757600080fd5b50604051610200806200419583398101806040528101908080519060200190929190805190602001909291908051906020019092919080519060200190929190805190602001909291908051906020019092919080519060200190929190805190602001909291908051906020019092919080519060200190929190805190602001909291908051906020019092919080519060200190929190805190602001909291908051906020019092919080519060200190929190505050336000806101000a81548173ffffffffffffffffffffffffffffffffffffffff021916908373ffffffffffffffffffffffffffffffffffffffff1602179055506200028d8989620005fd640100000000026401000000009004565b151562000328576040517f08c379a00000000000000000000000000000000000000000000000000000000081526004018080602001828103825260268152602001807f496e76616c69642064656c6976657279206c6f6e676974756465206f72206c6181526020017f746974756465000000000000000000000000000000000000000000000000000081525060400191505060405180910390fd5b620003438787620005fd640100000000026401000000009004565b1515620003de576040517f08c379a00000000000000000000000000000000000000000000000000000000081526004018080602001828103825260248152602001807f496e76616c6964207069636b7570206c6f6e676974756465206f72206c61746981526020017f747564650000000000000000000000000000000000000000000000000000000081525060400191505060405180910390fd5b60328512158015620003f1575060968513155b15156200048c576040517f08c379a00000000000000000000000000000000000000000000000000000000081526004018080602001828103825260398152602001807f6163637572616379206f662064656c697665727920616e64207069636b75702081526020017f6973206e6f74206265747765656e20353020616e64203135300000000000000081525060400191505060405180910390fd5b8f6000806101000a81548173ffffffffffffffffffffffffffffffffffffffff021916908373ffffffffffffffffffffffffffffffffffffffff1602179055508e600260006101000a81548173ffffffffffffffffffffffffffffffffffffffff021916908373ffffffffffffffffffffffffffffffffffffffff1602179055508d600360006101000a81548173ffffffffffffffffffffffffffffffffffffffff021916908373ffffffffffffffffffffffffffffffffffffffff1602179055508c600460006101000a81548173ffffffffffffffffffffffffffffffffffffffff021916908373ffffffffffffffffffffffffffffffffffffffff1602179055508b600981600019169055508a60068190555089600781905550846025819055508760268190555088602781905550856028819055508660298190555081600e8190555080600f8190555083600b8190555082600c819055505050505050505050505050505050505062000678565b60007ffffffffffffffffffffffffffffffffffffffffffffffffffffffffbcf1dcc0083138015620006335750640430e2340083125b80156200067057507ffffffffffffffffffffffffffffffffffffffffffffffffffffffffe050e46d2821380156200066f57506401faf1b92e82125b5b905092915050565b613b0d80620006886000396000f300608060405260043610610288576000357c0100000000000000000000000000000000000000000000000000000000900463ffffffff1680630323d0931461031c5780630c6086cd1461038b5780630c665c67146104035780630f9666f81461043257806319e42dab1461045d57806324500bf7146104885780632ca15122146104b35780632de849cc146104bd57806330b9ca35146104e857806337a3ee071461051357806339f4493e1461053e5780633c8d6f961461056957806341e60c86146105e3578063463384bb146105fa5780634d6dd0fe1461063157806350a7f7d31461066057806354fd4d50146106b757806355dee5ff146106ea57806356f2876f14610715578063572940ab146107405780635f5b5d6514610757578063606eea9f1461078e57806367e404ce146107b95780636c1dc822146108105780637361c0be1461083b57806376c2224a14610866578063774c0b0e1461089157806385797c7c146108bc578063880778b9146108e75780638da5cb5b146109125780638e994775146109695780639455edd814610994578063957e09bd146109bf578063b8c92722146109ea578063bbdfbfba14610a19578063bda8da6e14610a30578063c2bd811914610a5b578063c85146bc14610a8e578063cbec74ca14610ab9578063d16a533514610ae4578063d5cabfa714610b17578063de64cbac14610b42578063e130200014610b6d578063e1e5b1ee14610b98578063e2c1772d14610baf578063f257a93314610bda578063f2fde38b14610c05578063f55f5e6914610c48578063f5b6594514610c73578063f7260d3e14610ca6578063f7736c2214610cfd578063fa2af9da14610d28578063fb4ebf3614610d7f578063fd9b43bc14610e76575b6040517f08c379a00000000000000000000000000000000000000000000000000000000081526004018080602001828103825260218152602001807f52656a6563746564206279207468652072656a6563746f7220636f6e7472616381526020017f740000000000000000000000000000000000000000000000000000000000000081525060400191505060405180910390fd5b34801561032857600080fd5b50610331610ea1565b604051808a1515151581526020018981526020018815151515815260200187815260200186151515158152602001858152602001848152602001838152602001828152602001995050505050505050505060405180910390f35b34801561039757600080fd5b506103a0611100565b604051808d81526020018c81526020018b81526020018a81526020018981526020018881526020018781526020018681526020018581526020018481526020018381526020018281526020019c5050505050505050505050505060405180910390f35b34801561040f57600080fd5b5061041861134e565b604051808215151515815260200191505060405180910390f35b34801561043e57600080fd5b50610447611361565b6040518082815260200191505060405180910390f35b34801561046957600080fd5b50610472611367565b6040518082815260200191505060405180910390f35b34801561049457600080fd5b5061049d61136d565b6040518082815260200191505060405180910390f35b6104bb611373565b005b3480156104c957600080fd5b506104d2611770565b6040518082815260200191505060405180910390f35b3480156104f457600080fd5b506104fd611776565b6040518082815260200191505060405180910390f35b34801561051f57600080fd5b5061052861177c565b6040518082815260200191505060405180910390f35b34801561054a57600080fd5b50610553611782565b6040518082815260200191505060405180910390f35b34801561057557600080fd5b5061057e611788565b604051808b600019166000191681526020018a815260200189815260200188600019166000191681526020018781526020018681526020018581526020018481526020018381526020018281526020019a505050505050505050505060405180910390f35b3480156105ef57600080fd5b506105f86119c7565b005b34801561060657600080fd5b5061062f6004803603810190808035906020019092919080359060200190929190505050611e6a565b005b34801561063d57600080fd5b506106466123e4565b604051808215151515815260200191505060405180910390f35b34801561066c57600080fd5b506106756123f7565b604051808273ffffffffffffffffffffffffffffffffffffffff1673ffffffffffffffffffffffffffffffffffffffff16815260200191505060405180910390f35b3480156106c357600080fd5b506106cc61241d565b60405180826000191660001916815260200191505060405180910390f35b3480156106f657600080fd5b506106ff612423565b6040518082815260200191505060405180910390f35b34801561072157600080fd5b5061072a612429565b6040518082815260200191505060405180910390f35b34801561074c57600080fd5b5061075561242f565b005b34801561076357600080fd5b5061078c6004803603810190808035906020019092919080359060200190929190505050612853565b005b34801561079a57600080fd5b506107a3612df3565b6040518082815260200191505060405180910390f35b3480156107c557600080fd5b506107ce612df9565b604051808273ffffffffffffffffffffffffffffffffffffffff1673ffffffffffffffffffffffffffffffffffffffff16815260200191505060405180910390f35b34801561081c57600080fd5b50610825612e1f565b6040518082815260200191505060405180910390f35b34801561084757600080fd5b50610850612e25565b6040518082815260200191505060405180910390f35b34801561087257600080fd5b5061087b612e2b565b6040518082815260200191505060405180910390f35b34801561089d57600080fd5b506108a6612e31565b6040518082815260200191505060405180910390f35b3480156108c857600080fd5b506108d1612e37565b6040518082815260200191505060405180910390f35b3480156108f357600080fd5b506108fc612e3d565b6040518082815260200191505060405180910390f35b34801561091e57600080fd5b50610927612e43565b604051808273ffffffffffffffffffffffffffffffffffffffff1673ffffffffffffffffffffffffffffffffffffffff16815260200191505060405180910390f35b34801561097557600080fd5b5061097e612e68565b6040518082815260200191505060405180910390f35b3480156109a057600080fd5b506109a9612e6e565b6040518082815260200191505060405180910390f35b3480156109cb57600080fd5b506109d4612e74565b6040518082815260200191505060405180910390f35b3480156109f657600080fd5b506109ff612e7a565b604051808215151515815260200191505060405180910390f35b348015610a2557600080fd5b50610a2e612e8d565b005b348015610a3c57600080fd5b50610a456132c2565b6040518082815260200191505060405180910390f35b348015610a6757600080fd5b50610a706132c8565b60405180826000191660001916815260200191505060405180910390f35b348015610a9a57600080fd5b50610aa36132ce565b6040518082815260200191505060405180910390f35b348015610ac557600080fd5b50610ace6132d4565b6040518082815260200191505060405180910390f35b348015610af057600080fd5b50610af96132da565b60405180826000191660001916815260200191505060405180910390f35b348015610b2357600080fd5b50610b2c6132e0565b6040518082815260200191505060405180910390f35b348015610b4e57600080fd5b50610b576132e6565b6040518082815260200191505060405180910390f35b348015610b7957600080fd5b50610b826132ec565b6040518082815260200191505060405180910390f35b348015610ba457600080fd5b50610bad6132f2565b005b348015610bbb57600080fd5b50610bc46135c6565b6040518082815260200191505060405180910390f35b348015610be657600080fd5b50610bef6135cc565b6040518082815260200191505060405180910390f35b348015610c1157600080fd5b50610c46600480360381019080803573ffffffffffffffffffffffffffffffffffffffff1690602001909291905050506135d2565b005b348015610c5457600080fd5b50610c5d613727565b6040518082815260200191505060405180910390f35b348015610c7f57600080fd5b50610c8861372d565b60405180826000191660001916815260200191505060405180910390f35b348015610cb257600080fd5b50610cbb613733565b604051808273ffffffffffffffffffffffffffffffffffffffff1673ffffffffffffffffffffffffffffffffffffffff16815260200191505060405180910390f35b348015610d0957600080fd5b50610d12613759565b6040518082815260200191505060405180910390f35b348015610d3457600080fd5b50610d3d61375f565b604051808273ffffffffffffffffffffffffffffffffffffffff1673ffffffffffffffffffffffffffffffffffffffff16815260200191505060405180910390f35b348015610d8b57600080fd5b50610d94613785565b604051808a600019166000191681526020018981526020018881526020018773ffffffffffffffffffffffffffffffffffffffff1673ffffffffffffffffffffffffffffffffffffffff1681526020018673ffffffffffffffffffffffffffffffffffffffff1673ffffffffffffffffffffffffffffffffffffffff1681526020018573ffffffffffffffffffffffffffffffffffffffff1673ffffffffffffffffffffffffffffffffffffffff1681526020018481526020018381526020018260001916600019168152602001995050505050505050505060405180910390f35b348015610e8257600080fd5b50610e8b613a1d565b6040518082815260200191505060405180910390f35b6000806000806000806000806000600360009054906101000a900473ffffffffffffffffffffffffffffffffffffffff1673ffffffffffffffffffffffffffffffffffffffff163373ffffffffffffffffffffffffffffffffffffffff161480610f585750600460009054906101000a900473ffffffffffffffffffffffffffffffffffffffff1673ffffffffffffffffffffffffffffffffffffffff163373ffffffffffffffffffffffffffffffffffffffff16145b80610fb05750600260009054906101000a900473ffffffffffffffffffffffffffffffffffffffff1673ffffffffffffffffffffffffffffffffffffffff163373ffffffffffffffffffffffffffffffffffffffff16145b8061100757506000809054906101000a900473ffffffffffffffffffffffffffffffffffffffff1673ffffffffffffffffffffffffffffffffffffffff163373ffffffffffffffffffffffffffffffffffffffff16145b15156110a1576040517f08c379a00000000000000000000000000000000000000000000000000000000081526004018080602001828103825260218152602001807f4f6e6c79207061727469636970616e74206f72206f776e657220616c6c6f776581526020017f640000000000000000000000000000000000000000000000000000000000000081525060400191505060405180910390fd5b601060009054906101000a900460ff1698506011549750601260009054906101000a900460ff1696506013549550601460009054906101000a900460ff1694506015549350601654925060175491506018549050909192939495969798565b600080600080600080600080600080600080600360009054906101000a900473ffffffffffffffffffffffffffffffffffffffff1673ffffffffffffffffffffffffffffffffffffffff163373ffffffffffffffffffffffffffffffffffffffff1614806111bb5750600460009054906101000a900473ffffffffffffffffffffffffffffffffffffffff1673ffffffffffffffffffffffffffffffffffffffff163373ffffffffffffffffffffffffffffffffffffffff16145b806112135750600260009054906101000a900473ffffffffffffffffffffffffffffffffffffffff1673ffffffffffffffffffffffffffffffffffffffff163373ffffffffffffffffffffffffffffffffffffffff16145b8061126a57506000809054906101000a900473ffffffffffffffffffffffffffffffffffffffff1673ffffffffffffffffffffffffffffffffffffffff163373ffffffffffffffffffffffffffffffffffffffff16145b1515611304576040517f08c379a00000000000000000000000000000000000000000000000000000000081526004018080602001828103825260218152602001807f4f6e6c79207061727469636970616e74206f72206f776e657220616c6c6f776581526020017f640000000000000000000000000000000000000000000000000000000000000081525060400191505060405180910390fd5b6019549b50601a549a50601b549950601c549850601d549750601e549650601f54955060205494506021549350602254925060235491506024549050909192939495969798999a9b565b601060009054906101000a900460ff1681565b60205481565b60115481565b60265481565b600360009054906101000a900473ffffffffffffffffffffffffffffffffffffffff1673ffffffffffffffffffffffffffffffffffffffff163373ffffffffffffffffffffffffffffffffffffffff16148061141c5750600460009054906101000a900473ffffffffffffffffffffffffffffffffffffffff1673ffffffffffffffffffffffffffffffffffffffff163373ffffffffffffffffffffffffffffffffffffffff16145b806114745750600260009054906101000a900473ffffffffffffffffffffffffffffffffffffffff1673ffffffffffffffffffffffffffffffffffffffff163373ffffffffffffffffffffffffffffffffffffffff16145b15156114e8576040517f08c379a00000000000000000000000000000000000000000000000000000000081526004018080602001828103825260188152602001807f4f6e6c79207061727469636970616e7420616c6c6f776564000000000000000081525060200191505060405180910390fd5b3373ffffffffffffffffffffffffffffffffffffffff16600260009054906101000a900473ffffffffffffffffffffffffffffffffffffffff1673ffffffffffffffffffffffffffffffffffffffff161480156115525750601060009054906101000a900460ff16155b1561164a576007546006540134141515611620576040517f08c379a00000000000000000000000000000000000000000000000000000000081526004018080602001828103825260538152602001807f5768656e207369676e696e672061732073656e64657220746865206d73672e7681526020017f616c7565206d75737420626520657175616c7320746865207472616e73706f7281526020017f7420616e6420706c617466726f6d20636f73740000000000000000000000000081525060600191505060405180910390fd5b6001601060006101000a81548160ff02191690831515021790555042601181905550346008819055505b3373ffffffffffffffffffffffffffffffffffffffff16600360009054906101000a900473ffffffffffffffffffffffffffffffffffffffff1673ffffffffffffffffffffffffffffffffffffffff161480156116b45750601260009054906101000a900460ff16155b156116dc576001601260006101000a81548160ff021916908315150217905550426013819055505b3373ffffffffffffffffffffffffffffffffffffffff16600460009054906101000a900473ffffffffffffffffffffffffffffffffffffffff1673ffffffffffffffffffffffffffffffffffffffff161480156117465750601460009054906101000a900460ff16155b1561176e576001601460006101000a81548160ff021916908315150217905550426015819055505b565b60245481565b60175481565b60195481565b601a5481565b600080600080600080600080600080600360009054906101000a900473ffffffffffffffffffffffffffffffffffffffff1673ffffffffffffffffffffffffffffffffffffffff163373ffffffffffffffffffffffffffffffffffffffff1614806118405750600460009054906101000a900473ffffffffffffffffffffffffffffffffffffffff1673ffffffffffffffffffffffffffffffffffffffff163373ffffffffffffffffffffffffffffffffffffffff16145b806118985750600260009054906101000a900473ffffffffffffffffffffffffffffffffffffffff1673ffffffffffffffffffffffffffffffffffffffff163373ffffffffffffffffffffffffffffffffffffffff16145b806118ef57506000809054906101000a900473ffffffffffffffffffffffffffffffffffffffff1673ffffffffffffffffffffffffffffffffffffffff163373ffffffffffffffffffffffffffffffffffffffff16145b1515611989576040517f08c379a00000000000000000000000000000000000000000000000000000000081526004018080602001828103825260218152602001807f4f6e6c79207061727469636970616e74206f72206f776e657220616c6c6f776581526020017f640000000000000000000000000000000000000000000000000000000000000081525060400191505060405180910390fd5b600a549950600b549850600c549750600d549650600e549550600f549450602654935060275492506028549150602954905090919293949596979899565b600360009054906101000a900473ffffffffffffffffffffffffffffffffffffffff1673ffffffffffffffffffffffffffffffffffffffff163373ffffffffffffffffffffffffffffffffffffffff161480611a705750600460009054906101000a900473ffffffffffffffffffffffffffffffffffffffff1673ffffffffffffffffffffffffffffffffffffffff163373ffffffffffffffffffffffffffffffffffffffff16145b80611ac85750600260009054906101000a900473ffffffffffffffffffffffffffffffffffffffff1673ffffffffffffffffffffffffffffffffffffffff163373ffffffffffffffffffffffffffffffffffffffff16145b1515611b3c576040517f08c379a00000000000000000000000000000000000000000000000000000000081526004018080602001828103825260188152602001807f4f6e6c79207061727469636970616e7420616c6c6f776564000000000000000081525060200191505060405180910390fd5b6000601654141515611bb6576040517f08c379a000000000000000000000000000000000000000000000000000000000815260040180806020018281038252601c8152602001807f7061636b61676520697320616c7265616479207069636b65642075700000000081525060200191505060405180910390fd5b600e54421080611bc75750600f5442115b1515611c3b576040517f08c379a000000000000000000000000000000000000000000000000000000000815260040180806020018281038252601c8152602001807f43616e6e6f7420756e73696e6720696e207069636b75702074696d650000000081525060200191505060405180910390fd5b3373ffffffffffffffffffffffffffffffffffffffff16600260009054906101000a900473ffffffffffffffffffffffffffffffffffffffff1673ffffffffffffffffffffffffffffffffffffffff16148015611ca45750601060009054906101000a900460ff165b15611d4457600260009054906101000a900473ffffffffffffffffffffffffffffffffffffffff1673ffffffffffffffffffffffffffffffffffffffff166108fc600754600654019081150290604051600060405180830381858888f19350505050158015611d17573d6000803e3d6000fd5b506000601060006101000a81548160ff021916908315150217905550600060118190555060006008819055505b3373ffffffffffffffffffffffffffffffffffffffff16600360009054906101000a900473ffffffffffffffffffffffffffffffffffffffff1673ffffffffffffffffffffffffffffffffffffffff16148015611dad5750601260009054906101000a900460ff165b15611dd6576000601260006101000a81548160ff02191690831515021790555060006013819055505b3373ffffffffffffffffffffffffffffffffffffffff16600460009054906101000a900473ffffffffffffffffffffffffffffffffffffffff1673ffffffffffffffffffffffffffffffffffffffff16148015611e3f5750601460009054906101000a900460ff165b15611e68576000601460006101000a81548160ff02191690831515021790555060006015819055505b565b600360009054906101000a900473ffffffffffffffffffffffffffffffffffffffff1673ffffffffffffffffffffffffffffffffffffffff163373ffffffffffffffffffffffffffffffffffffffff161480611f135750600260009054906101000a900473ffffffffffffffffffffffffffffffffffffffff1673ffffffffffffffffffffffffffffffffffffffff163373ffffffffffffffffffffffffffffffffffffffff16145b1515611f87576040517f08c379a000000000000000000000000000000000000000000000000000000000815260040180806020018281038252601f8152602001807f6f6e6c792073656e646572206f7220636f757269657220616c6c6f776564210081525060200191505060405180910390fd5b601060009054906101000a900460ff16151561200b576040517f08c379a000000000000000000000000000000000000000000000000000000000815260040180806020018281038252601f8152602001807f53656e64657220686173206e6f74207369676e656420636f6e7472616374210081525060200191505060405180910390fd5b601260009054906101000a900460ff16151561208f576040517f08c379a00000000000000000000000000000000000000000000000000000000081526004018080602001828103825260208152602001807f436f757269657220686173206e6f74207369676e656420636f6e74726163742181525060200191505060405180910390fd5b601460009054906101000a900460ff161515612113576040517f08c379a00000000000000000000000000000000000000000000000000000000081526004018080602001828103825260208152602001807f526563656976657220686173206e6f74207369676e656420636f6e747261637481525060200191505060405180910390fd5b61211d8282613a23565b15156121b7576040517f08c379a00000000000000000000000000000000000000000000000000000000081526004018080602001828103825260398152602001807f496e76616c6964206c6f6e676974756465206f72206c6174697475646520666f81526020017f72207265616479466f725069636b75702066756e6374696f6e0000000000000081525060400191505060405180910390fd5b6121c360295483613a9b565b151561225d576040517f08c379a00000000000000000000000000000000000000000000000000000000081526004018080602001828103825260258152602001807f4c6f6e67697475646520697320746f206661722066726f6d207069636b75702081526020017f706f696e7400000000000000000000000000000000000000000000000000000081525060400191505060405180910390fd5b61226960285482613a9b565b1515612303576040517f08c379a00000000000000000000000000000000000000000000000000000000081526004018080602001828103825260248152602001807f4c6174697475646520697320746f206661722066726f6d207069636b7570207081526020017f6f696e740000000000000000000000000000000000000000000000000000000081525060400191505060405180910390fd5b3373ffffffffffffffffffffffffffffffffffffffff16600260009054906101000a900473ffffffffffffffffffffffffffffffffffffffff1673ffffffffffffffffffffffffffffffffffffffff161415612373574260198190555081601a8190555080601b819055506123e0565b3373ffffffffffffffffffffffffffffffffffffffff16600360009054906101000a900473ffffffffffffffffffffffffffffffffffffffff1673ffffffffffffffffffffffffffffffffffffffff1614156123df5742601c8190555081601d8190555080601e819055505b5b5050565b601460009054906101000a900460ff1681565b600360009054906101000a900473ffffffffffffffffffffffffffffffffffffffff1681565b60015481565b60185481565b60165481565b600260009054906101000a900473ffffffffffffffffffffffffffffffffffffffff1673ffffffffffffffffffffffffffffffffffffffff163373ffffffffffffffffffffffffffffffffffffffff161415156124f4576040517f08c379a00000000000000000000000000000000000000000000000000000000081526004018080602001828103825260148152602001807f6f6e6c792073656e64657220616c6c6f7765642100000000000000000000000081525060200191505060405180910390fd5b601060009054906101000a900460ff161515612578576040517f08c379a000000000000000000000000000000000000000000000000000000000815260040180806020018281038252601f8152602001807f53656e64657220686173206e6f74207369676e656420636f6e7472616374210081525060200191505060405180910390fd5b601260009054906101000a900460ff1615156125fc576040517f08c379a00000000000000000000000000000000000000000000000000000000081526004018080602001828103825260208152602001807f436f757269657220686173206e6f74207369676e656420636f6e74726163742181525060200191505060405180910390fd5b601460009054906101000a900460ff161515612680576040517f08c379a00000000000000000000000000000000000000000000000000000000081526004018080602001828103825260208152602001807f526563656976657220686173206e6f74207369676e656420636f6e747261637481525060200191505060405180910390fd5b60006017541415156126fa576040517f08c379a00000000000000000000000000000000000000000000000000000000081526004018080602001828103825260148152602001807f43616e6e6f742062652064656c6976657265642e00000000000000000000000081525060200191505060405180910390fd5b6000601654111515612774576040517f08c379a00000000000000000000000000000000000000000000000000000000081526004018080602001828103825260198152602001807f50617263656c20776173206e6f74207069636b65642075702e0000000000000081525060200191505060405180910390fd5b42601881905550600260009054906101000a900473ffffffffffffffffffffffffffffffffffffffff1673ffffffffffffffffffffffffffffffffffffffff166108fc6006549081150290604051600060405180830381858888f193505050501580156127e5573d6000803e3d6000fd5b50600560009054906101000a900473ffffffffffffffffffffffffffffffffffffffff1673ffffffffffffffffffffffffffffffffffffffff166108fc6007549081150290604051600060405180830381858888f19350505050158015612850573d6000803e3d6000fd5b50565b600460009054906101000a900473ffffffffffffffffffffffffffffffffffffffff1673ffffffffffffffffffffffffffffffffffffffff163373ffffffffffffffffffffffffffffffffffffffff1614806128fc5750600260009054906101000a900473ffffffffffffffffffffffffffffffffffffffff1673ffffffffffffffffffffffffffffffffffffffff163373ffffffffffffffffffffffffffffffffffffffff16145b1515612996576040517f08c379a00000000000000000000000000000000000000000000000000000000081526004018080602001828103825260218152602001807f6f6e6c79207265636569766572206f7220636f757269657220616c6c6f77656481526020017f210000000000000000000000000000000000000000000000000000000000000081525060400191505060405180910390fd5b601060009054906101000a900460ff161515612a1a576040517f08c379a000000000000000000000000000000000000000000000000000000000815260040180806020018281038252601f8152602001807f53656e64657220686173206e6f74207369676e656420636f6e7472616374210081525060200191505060405180910390fd5b601260009054906101000a900460ff161515612a9e576040517f08c379a00000000000000000000000000000000000000000000000000000000081526004018080602001828103825260208152602001807f436f757269657220686173206e6f74207369676e656420636f6e74726163742181525060200191505060405180910390fd5b601460009054906101000a900460ff161515612b22576040517f08c379a00000000000000000000000000000000000000000000000000000000081526004018080602001828103825260208152602001807f526563656976657220686173206e6f74207369676e656420636f6e747261637481525060200191505060405180910390fd5b612b2c8282613a23565b1515612bc6576040517f08c379a000000000000000000000000000000000000000000000000000000000815260040180806020018281038252603b8152602001807f496e76616c6964206c6f6e676974756465206f72206c6174697475646520666f81526020017f72207265616479466f7244656c69766572792066756e6374696f6e000000000081525060400191505060405180910390fd5b612bd260275483613a9b565b1515612c6c576040517f08c379a00000000000000000000000000000000000000000000000000000000081526004018080602001828103825260278152602001807f4c6f6e67697475646520697320746f206661722066726f6d2064656c6976657281526020017f7920706f696e740000000000000000000000000000000000000000000000000081525060400191505060405180910390fd5b612c7860265482613a9b565b1515612d12576040517f08c379a00000000000000000000000000000000000000000000000000000000081526004018080602001828103825260268152602001807f4c6174697475646520697320746f206661722066726f6d2064656c697665727981526020017f20706f696e74000000000000000000000000000000000000000000000000000081525060400191505060405180910390fd5b3373ffffffffffffffffffffffffffffffffffffffff16600460009054906101000a900473ffffffffffffffffffffffffffffffffffffffff1673ffffffffffffffffffffffffffffffffffffffff161415612d825742601f819055508160208190555080602181905550612def565b3373ffffffffffffffffffffffffffffffffffffffff16600360009054906101000a900473ffffffffffffffffffffffffffffffffffffffff1673ffffffffffffffffffffffffffffffffffffffff161415612dee574260228190555081602381905550806024819055505b5b5050565b60235481565b600260009054906101000a900473ffffffffffffffffffffffffffffffffffffffff1681565b60065481565b60255481565b60155481565b601f5481565b60215481565b60135481565b6000809054906101000a900473ffffffffffffffffffffffffffffffffffffffff1681565b600b5481565b60295481565b60275481565b601260009054906101000a900460ff1681565b600460009054906101000a900473ffffffffffffffffffffffffffffffffffffffff1673ffffffffffffffffffffffffffffffffffffffff163373ffffffffffffffffffffffffffffffffffffffff16141515612f52576040517f08c379a00000000000000000000000000000000000000000000000000000000081526004018080602001828103825260168152602001807f6f6e6c7920726563696576657220616c6c6f776564210000000000000000000081525060200191505060405180910390fd5b601060009054906101000a900460ff161515612fd6576040517f08c379a000000000000000000000000000000000000000000000000000000000815260040180806020018281038252601f8152602001807f53656e64657220686173206e6f74207369676e656420636f6e7472616374210081525060200191505060405180910390fd5b601260009054906101000a900460ff16151561305a576040517f08c379a00000000000000000000000000000000000000000000000000000000081526004018080602001828103825260208152602001807f436f757269657220686173206e6f74207369676e656420636f6e74726163742181525060200191505060405180910390fd5b601460009054906101000a900460ff1615156130de576040517f08c379a00000000000000000000000000000000000000000000000000000000081526004018080602001828103825260208152602001807f526563656976657220686173206e6f74207369676e656420636f6e747261637481525060200191505060405180910390fd5b6000601754141515613158576040517f08c379a00000000000000000000000000000000000000000000000000000000081526004018080602001828103825260158152602001807f43616e6e6f742064656c697665722074776963652e000000000000000000000081525060200191505060405180910390fd5b60006016541115156131d2576040517f08c379a00000000000000000000000000000000000000000000000000000000081526004018080602001828103825260198152602001807f50617263656c20776173206e6f74207069636b65642075702e0000000000000081525060200191505060405180910390fd5b42601781905550600c54421115156131e9576131ea565b5b600360009054906101000a900473ffffffffffffffffffffffffffffffffffffffff1673ffffffffffffffffffffffffffffffffffffffff166108fc6006549081150290604051600060405180830381858888f19350505050158015613254573d6000803e3d6000fd5b50600560009054906101000a900473ffffffffffffffffffffffffffffffffffffffff1673ffffffffffffffffffffffffffffffffffffffff166108fc6007549081150290604051600060405180830381858888f193505050501580156132bf573d6000803e3d6000fd5b50565b60225481565b600a5481565b601b5481565b60075481565b600d5481565b601d5481565b600c5481565b60285481565b600360009054906101000a900473ffffffffffffffffffffffffffffffffffffffff1673ffffffffffffffffffffffffffffffffffffffff163373ffffffffffffffffffffffffffffffffffffffff161415156133b7576040517f08c379a00000000000000000000000000000000000000000000000000000000081526004018080602001828103825260158152602001807f6f6e6c7920636f757269657220616c6c6f77656421000000000000000000000081525060200191505060405180910390fd5b601060009054906101000a900460ff16151561343b576040517f08c379a000000000000000000000000000000000000000000000000000000000815260040180806020018281038252601f8152602001807f53656e64657220686173206e6f74207369676e656420636f6e7472616374210081525060200191505060405180910390fd5b601260009054906101000a900460ff1615156134bf576040517f08c379a00000000000000000000000000000000000000000000000000000000081526004018080602001828103825260208152602001807f436f757269657220686173206e6f74207369676e656420636f6e74726163742181525060200191505060405180910390fd5b601460009054906101000a900460ff161515613543576040517f08c379a00000000000000000000000000000000000000000000000000000000081526004018080602001828103825260208152602001807f526563656976657220686173206e6f74207369676e656420636f6e747261637481525060200191505060405180910390fd5b60006016541415156135bd576040517f08c379a00000000000000000000000000000000000000000000000000000000081526004018080602001828103825260138152602001807f43616e6e6f74207069636b75702074776963650000000000000000000000000081525060200191505060405180910390fd5b42601681905550565b601c5481565b601e5481565b6000809054906101000a900473ffffffffffffffffffffffffffffffffffffffff1673ffffffffffffffffffffffffffffffffffffffff163373ffffffffffffffffffffffffffffffffffffffff1614151561362d57600080fd5b600073ffffffffffffffffffffffffffffffffffffffff168173ffffffffffffffffffffffffffffffffffffffff161415151561366957600080fd5b8073ffffffffffffffffffffffffffffffffffffffff166000809054906101000a900473ffffffffffffffffffffffffffffffffffffffff1673ffffffffffffffffffffffffffffffffffffffff167f8be0079c531659141344cd1fd0a4f28419497f9722a3daafe3b4186f6b6457e060405160405180910390a3806000806101000a81548173ffffffffffffffffffffffffffffffffffffffff021916908373ffffffffffffffffffffffffffffffffffffffff16021790555050565b600f5481565b60095481565b600460009054906101000a900473ffffffffffffffffffffffffffffffffffffffff1681565b600e5481565b600560009054906101000a900473ffffffffffffffffffffffffffffffffffffffff1681565b6000806000806000806000806000600360009054906101000a900473ffffffffffffffffffffffffffffffffffffffff1673ffffffffffffffffffffffffffffffffffffffff163373ffffffffffffffffffffffffffffffffffffffff16148061383c5750600460009054906101000a900473ffffffffffffffffffffffffffffffffffffffff1673ffffffffffffffffffffffffffffffffffffffff163373ffffffffffffffffffffffffffffffffffffffff16145b806138945750600260009054906101000a900473ffffffffffffffffffffffffffffffffffffffff1673ffffffffffffffffffffffffffffffffffffffff163373ffffffffffffffffffffffffffffffffffffffff16145b806138eb57506000809054906101000a900473ffffffffffffffffffffffffffffffffffffffff1673ffffffffffffffffffffffffffffffffffffffff163373ffffffffffffffffffffffffffffffffffffffff16145b1515613985576040517f08c379a00000000000000000000000000000000000000000000000000000000081526004018080602001828103825260218152602001807f4f6e6c79207061727469636970616e74206f72206f776e657220616c6c6f776581526020017f640000000000000000000000000000000000000000000000000000000000000081525060400191505060405180910390fd5b600154985060075496506025549750600260009054906101000a900473ffffffffffffffffffffffffffffffffffffffff169550600360009054906101000a900473ffffffffffffffffffffffffffffffffffffffff169450600460009054906101000a900473ffffffffffffffffffffffffffffffffffffffff169350600654925060085491506009549050909192939495969798565b60085481565b60007ffffffffffffffffffffffffffffffffffffffffffffffffffffffffbcf1dcc0083138015613a585750640430e2340083125b8015613a9357507ffffffffffffffffffffffffffffffffffffffffffffffffffffffffe050e46d282138015613a9257506401faf1b92e82125b5b905092915050565b60008082840390506000811215613ad2577fffffffffffffffffffffffffffffffffffffffffffffffffffffffffffffffff810290505b602554811315915050929150505600a165627a7a723058205d64e67cfa602bb227bd8c5fbd4011e26f845ea4ceff0066e90c39dcc34ff94f0029",
  "source": "pragma solidity ^0.4.24;\r\n\r\nimport \"./Ownable.sol\";\r\nimport \"./Rejector.sol\";\r\n\r\ncontract ParcelContract is Ownable, Rejector {\r\n    \r\n    bytes32 public version = \"1.0\";\r\n    address public sender;\r\n    address public courier;\r\n    address public receiver;\r\n    address public platformWallet = address(0xdD870fA1b7C4700F2BD7f44238821C26f7392148);\r\n    \r\n    uint256 public transportCost = 0;\r\n    uint256 public platformCost = 0;\r\n    uint256 public weiLockedBySender = 0;\r\n    \r\n    // parcel data\r\n    bytes32 public parcelHash; \r\n    \r\n    // delivery data\r\n    bytes32 public deliveryAddress;\r\n    uint256 public deliveryStart = 0;\r\n    uint256 public deliveryEnd = 0;\r\n    \r\n    // pickup data\r\n    bytes32 public pickupAddress;\r\n    uint256 public pickupStart = 0;\r\n    uint256 public pickupEnd = 0;\r\n    \r\n    bool public senderSigned  = false;\r\n    uint256 public senderSignedTimeStamp = 0;\r\n    \r\n    bool public courierSigned  = false;\r\n    uint256 public courierSignedTimeStamp = 0;\r\n    \r\n    bool public receiverSigned = false;\r\n    uint256 public receiverSignedTimeStamp = 0;\r\n    \r\n    uint256 public pickupTimeStamp = 0; \r\n    uint256 public deliveredTimeStamp = 0;\r\n    uint256 public deliveredToSenderTimeStamp = 0;\r\n    \r\n    uint256 public readyForPickupTimeStampSender = 0;\r\n    int public readyForPickupLongitudeSender = 0;\r\n    int public readyForPickupLatitudeSender = 0;\r\n    \r\n    uint256 public readyForPickupTimeStampCourier = 0;\r\n    int public readyForPickupLongitudeCourier = 0;\r\n    int public readyForPickupLatitudeCourier = 0;\r\n    \r\n    uint256 public readyForDeliveryTimeStampReceiver = 0;\r\n    int public readyForDeliveryLongitudeReceiver = 0;\r\n    int public readyForDeliveryLatitudeReceiver = 0;\r\n    \r\n    uint256 public readyForDeliveryTimeStampCourier = 0;\r\n    int public readyForDeliveryLongitudeCourier = 0;\r\n    int public readyForDeliveryLatitudeCourier = 0;\r\n    \r\n    int public accuracyDeliveryAndPickup = 0;\r\n    int public deliveryLatitude = 0;\r\n    int public deliveryLongitude = 0;\r\n    int public pickupLatitude = 0;\r\n    int public pickupLongitude = 0;\r\n    \r\n    constructor\r\n    (\r\n        address _owner, \r\n        address _sender, \r\n        address _courier, \r\n        address _receiver,  \r\n        bytes32 _parcelHash, \r\n        uint256 _transportCost, \r\n        uint256 _platformCost, \r\n        int _deliveryLongitude, \r\n        int _deliveryLatitude, \r\n        int _pickupLongitude, \r\n        int _pickupLatitude, \r\n        int _accuracyDeliveryAndPickup, \r\n        uint256 _deliveryStart, \r\n        uint256 _deliveryEnd, \r\n        uint256 _pickupStart, \r\n        uint256 _pickupEnd\r\n    ) public {\r\n        require(isValidLongitudeAndLatitude(_deliveryLongitude, _deliveryLatitude), \"Invalid delivery longitude or latitude\");\r\n        require(isValidLongitudeAndLatitude(_pickupLongitude, _pickupLatitude), \"Invalid pickup longitude or latitude\");\r\n        require(_accuracyDeliveryAndPickup >= 50 && _accuracyDeliveryAndPickup <= 150, \"accuracy of delivery and pickup is not between 50 and 150\");\r\n        \r\n        owner = _owner;\r\n        sender = _sender;\r\n        courier = _courier;\r\n        receiver = _receiver;\r\n        \r\n        parcelHash = _parcelHash;\r\n        \r\n        transportCost = _transportCost;\r\n        platformCost = _platformCost;\r\n        \r\n        accuracyDeliveryAndPickup = _accuracyDeliveryAndPickup;\r\n        deliveryLatitude = _deliveryLatitude;\r\n        deliveryLongitude = _deliveryLongitude;\r\n        pickupLatitude = _pickupLatitude;\r\n        pickupLongitude = _pickupLongitude;\r\n        \r\n        pickupStart = _pickupStart;\r\n        pickupEnd = _pickupEnd;\r\n        deliveryStart = _deliveryStart;\r\n        deliveryEnd = _deliveryEnd;\r\n    }\r\n    \r\n    function sign() public payable onlyParticipant {\r\n        if(sender == msg.sender && !senderSigned)\r\n        {\r\n            require(msg.value == (transportCost + platformCost), \"When signing as sender the msg.value must be equals the transport and platfrom cost\");\r\n            senderSigned = true;\r\n            senderSignedTimeStamp = now;\r\n            \r\n            weiLockedBySender = msg.value;\r\n        }\r\n        if(courier == msg.sender && !courierSigned)\r\n        {\r\n            courierSigned = true;\r\n            courierSignedTimeStamp = now;    \r\n        }\r\n        if(receiver == msg.sender && !receiverSigned)\r\n        {\r\n            receiverSigned = true;\r\n            receiverSignedTimeStamp = now;    \r\n        }\r\n    }\r\n    \r\n    function unsign() public onlyParticipant {\r\n        require(pickupTimeStamp == 0, \"package is already picked up\");\r\n        require(now < pickupStart  || now > pickupEnd, \"Cannot unsing in pickup time\");\r\n        \r\n        \r\n        if(sender == msg.sender && senderSigned)\r\n        {\r\n            sender.transfer(transportCost + platformCost);\r\n            senderSigned = false;\r\n            senderSignedTimeStamp = 0;\r\n            \r\n            weiLockedBySender = 0;\r\n        }\r\n        if(courier == msg.sender && courierSigned)\r\n        {\r\n            courierSigned = false;\r\n            courierSignedTimeStamp = 0;    \r\n        }\r\n        if(receiver == msg.sender && receiverSigned)\r\n        {\r\n            receiverSigned = false;\r\n            receiverSignedTimeStamp = 0;    \r\n        }\r\n    }\r\n    \r\n    function pickup() public onlyCourier onlySignedContract {\r\n        require(pickupTimeStamp == 0, \"Cannot pickup twice\");\r\n        pickupTimeStamp = now;\r\n    }\r\n    \r\n    function delivered() public onlyReceiver onlySignedContract {\r\n        require(deliveredTimeStamp == 0, \"Cannot deliver twice.\");\r\n        require (pickupTimeStamp > 0, \"Parcel was not picked up.\");\r\n        deliveredTimeStamp = now;\r\n        \r\n        if(now <= deliveryEnd) {\r\n            // add reward to transport transportcost\r\n        }\r\n        else {\r\n            // return reward to sender\r\n        }\r\n        courier.transfer(transportCost);\r\n        platformWallet.transfer(platformCost);\r\n    }\r\n    \r\n    function deliverdToSender() public onlySender onlySignedContract {\r\n        require(deliveredTimeStamp == 0, \"Cannot be delivered.\");\r\n        require (pickupTimeStamp > 0, \"Parcel was not picked up.\");\r\n        deliveredToSenderTimeStamp = now;\r\n        \r\n        sender.transfer(transportCost);\r\n        platformWallet.transfer(platformCost);\r\n    }\r\n    \r\n    function readyForPickup(int longitude, int latidude) public onlyCourierOrSender onlySignedContract {\r\n        require(isValidLongitudeAndLatitude(longitude, latidude), \"Invalid longitude or latitude for readyForPickup function\");\r\n        require(nearbyPickupOrdDelivery(pickupLongitude, longitude), \"Longitude is to far from pickup point\");\r\n        require(nearbyPickupOrdDelivery(pickupLatitude, latidude), \"Latitude is to far from pickup point\");\r\n        \r\n        if(sender == msg.sender)\r\n        {\r\n            readyForPickupTimeStampSender = now;\r\n            readyForPickupLongitudeSender = longitude;\r\n            readyForPickupLatitudeSender = latidude;\r\n        }\r\n        else if(courier == msg.sender)\r\n        {\r\n            readyForPickupTimeStampCourier = now;\r\n            readyForPickupLongitudeCourier = longitude;\r\n            readyForPickupLatitudeCourier  = latidude;\r\n        }\r\n    }\r\n    \r\n    function readyForDelivery(int longitude, int latidude) public onlyCourierOrReceiver onlySignedContract {\r\n        require(isValidLongitudeAndLatitude(longitude, latidude), \"Invalid longitude or latitude for readyForDelivery function\");\r\n        require(nearbyPickupOrdDelivery(deliveryLongitude, longitude), \"Longitude is to far from delivery point\");\r\n        require(nearbyPickupOrdDelivery(deliveryLatitude, latidude), \"Latitude is to far from delivery point\");\r\n        \r\n        if(receiver == msg.sender)\r\n        {\r\n            readyForDeliveryTimeStampReceiver = now;\r\n            readyForDeliveryLongitudeReceiver = longitude;\r\n            readyForDeliveryLatitudeReceiver = latidude;\r\n        }\r\n        else if(courier == msg.sender)\r\n        {\r\n            readyForDeliveryTimeStampCourier = now;\r\n            readyForDeliveryLongitudeCourier = longitude;\r\n            readyForDeliveryLatitudeCourier  = latidude;\r\n        }\r\n    }\r\n    \r\n    function readReadyEvents() public view onlyParticipantAndOwner returns\r\n    (\r\n        uint256 _readyForPickupTimeStampSender,\r\n        int _readyForPickupLongitudeSender,\r\n        int _readyForPickupLatitudeSender,\r\n        uint256 _readyForPickupTimeStampCourier,\r\n        int _readyForPickupLongitudeCourier,\r\n        int _readyForPickupLatitudeCourier,\r\n        uint256 _readyForDeliveryTimeStampReceiver,\r\n        int _readyForDeliveryLongitudeReceiver,\r\n        int _readyForDeliveryLatitudeReceiver,\r\n        uint256 _readyForDeliveryTimeStampCourier,\r\n        int _readyForDeliveryLongitudeCourier,\r\n        int _readyForDeliveryLatitudeCourier\r\n    ) {\r\n        _readyForPickupTimeStampSender = readyForPickupTimeStampSender;\r\n        _readyForPickupLongitudeSender = readyForPickupLongitudeSender;\r\n        _readyForPickupLatitudeSender = readyForPickupLatitudeSender;\r\n        _readyForPickupTimeStampCourier = readyForPickupTimeStampCourier;\r\n        _readyForPickupLongitudeCourier = readyForPickupLongitudeCourier;\r\n        _readyForPickupLatitudeCourier = readyForPickupLatitudeCourier;\r\n        _readyForDeliveryTimeStampReceiver = readyForDeliveryTimeStampReceiver;\r\n        _readyForDeliveryLongitudeReceiver = readyForDeliveryLongitudeReceiver;\r\n        _readyForDeliveryLatitudeReceiver = readyForDeliveryLatitudeReceiver;\r\n        _readyForDeliveryTimeStampCourier = readyForDeliveryTimeStampCourier;\r\n        _readyForDeliveryLongitudeCourier = readyForDeliveryLongitudeCourier;\r\n        _readyForDeliveryLatitudeCourier = readyForDeliveryLatitudeCourier;\r\n    }\r\n    \r\n    function readMainEvents() public view onlyParticipantAndOwner returns\r\n    (\r\n        bool _senderSigned,\r\n        uint256 _senderSignedTimeStamp,\r\n        bool _courierSigned,\r\n        uint256 _courierSignedTimeStamp,\r\n        bool _receiverSigned,\r\n        uint256 _receiverSignedTimeStamp,\r\n        uint256 _pickupTimeStamp,\r\n        uint256 _deliveredTimeStamp,\r\n        uint256 _deliveredToSenderTimeStamp\r\n    ) {\r\n        _senderSigned = senderSigned;\r\n        _senderSignedTimeStamp = senderSignedTimeStamp;\r\n        _courierSigned = courierSigned;\r\n        _courierSignedTimeStamp = courierSignedTimeStamp;\r\n        _receiverSigned = receiverSigned;\r\n        _receiverSignedTimeStamp = receiverSignedTimeStamp;\r\n        _pickupTimeStamp = pickupTimeStamp;\r\n        _deliveredTimeStamp = deliveredTimeStamp;\r\n        _deliveredToSenderTimeStamp = deliveredToSenderTimeStamp;\r\n    }\r\n    \r\n    function readDetails() public view onlyParticipantAndOwner returns\r\n    (\r\n        bytes32 _version,\r\n        int _accuracyDeliveryAndPickup,\r\n        uint256 _platformCost,\r\n        address _sender,\r\n        address _courier,\r\n        address _receiver,\r\n        uint256 _transportCost,\r\n        uint256 _weiLockedBySender,\r\n        bytes32 _parcelHash\r\n    ) {\r\n        _version = version;\r\n        _platformCost = platformCost;\r\n        _accuracyDeliveryAndPickup = accuracyDeliveryAndPickup;\r\n        _sender = sender;\r\n        _courier = courier;\r\n        _receiver = receiver;\r\n        _transportCost = transportCost;\r\n        _weiLockedBySender = weiLockedBySender;\r\n        _parcelHash = parcelHash;\r\n    }\r\n    \r\n    function readPickupAndDeliveryDetails() public view onlyParticipantAndOwner returns\r\n    (\r\n        bytes32 _deliveryAddress,\r\n        uint256 _deliveryStart,\r\n        uint256 _deliveryEnd,\r\n        bytes32 _pickupAddress,\r\n        uint256 _pickupStart,\r\n        uint256 _pickupEnd,\r\n        int _deliveryLatitude,\r\n        int _deliveryLongitude,\r\n        int _pickupLatitude,\r\n        int _pickupLongitude\r\n    ) {\r\n        _deliveryAddress = deliveryAddress;\r\n        _deliveryStart = deliveryStart;\r\n        _deliveryEnd = deliveryEnd;\r\n        _pickupAddress = pickupAddress;\r\n        _pickupStart = pickupStart;\r\n        _pickupEnd = pickupEnd;\r\n        _deliveryLatitude = deliveryLatitude;\r\n        _deliveryLongitude = deliveryLongitude;\r\n        _pickupLatitude = pickupLatitude;\r\n        _pickupLongitude = pickupLongitude;\r\n    }\r\n\r\n    \r\n    function nearbyPickupOrdDelivery(int pointA, int pointB) private view returns (bool) {\r\n        int result = pointA - pointB;\r\n        if(result < 0)\r\n            result = result * -1;\r\n            \r\n        return result <= accuracyDeliveryAndPickup;\r\n    }\r\n    \r\n    function isValidLongitudeAndLatitude(int256 longitude, int256 latitude) private pure returns (bool) {\r\n        return ((longitude > -18000000000 && longitude < 18000000000) && (latitude > -8505112878 && latitude < 8505112878));\r\n    }\r\n    \r\n    modifier onlySender() {\r\n        require (msg.sender == sender, \"only sender allowed!\");\r\n        _;\r\n    }\r\n    \r\n    modifier onlyCourier() {\r\n        require (msg.sender == courier, \"only courier allowed!\");\r\n        _;\r\n    }\r\n    \r\n    modifier onlyReceiver() {\r\n        require (msg.sender == receiver, \"only reciever allowed!\");\r\n        _;\r\n    }\r\n    \r\n    modifier onlyCourierOrSender() {\r\n        require (msg.sender == courier || msg.sender == sender, \"only sender or courier allowed!\");\r\n        _;\r\n    }\r\n    \r\n    modifier onlyCourierOrReceiver() {\r\n        require (msg.sender == receiver || msg.sender == sender, \"only receiver or courier allowed!\");\r\n        _;\r\n    }\r\n    \r\n    modifier onlyParticipant() {\r\n        require (msg.sender == courier || msg.sender == receiver || msg.sender == sender, \"Only participant allowed\");\r\n        _;\r\n    }\r\n    modifier onlyParticipantAndOwner() {\r\n        require (msg.sender == courier || msg.sender == receiver || msg.sender == sender || msg.sender == owner, \"Only participant or owner allowed\");\r\n        _;\r\n    }\r\n    modifier onlySignedContract() {\r\n        require(senderSigned, \"Sender has not signed contract!\");\r\n        require(courierSigned, \"Courier has not signed contract!\");\r\n        require(receiverSigned, \"Receiver has not signed contract\");\r\n        _;\r\n    }\r\n}",
  "sourcePath": "C:\\PROJECTS\\blockchain-secured-parcel-service\\Nodejs\\init\\contracts\\ParcelContract.sol",
  "compiler": {
    "name": "solc",
    "version": "0.4.24+commit.e67f0147.Emscripten.clang"
  },
  "schemaVersion": "2.0.1",
  "updatedAt": "2018-12-30T14:35:19.860Z"
}